8=FIX.4.4|9=78|35=A|34=1|49=CLIENT1|52=20190919-00:00:17.262|56=ORDERMATCH|98=0|108=30|141=Y|10=012|8=FIX.4.4|9=60|35=0|34=2|49=CLIENT1|52=20190919-00:00:47.293|56=ORDERMATCH|10=180|8=FIX.4.4|9=60|35=0|34=3|49=CLIENT1|52=20190919-00:01:17.327|56=ORDERMATCH|10=177|8=FIX.4.4|9=60|35=0|34=4|49=CLIENT1|52=20190919-00:01:47.359|56=ORDERMATCH|10=186|8=FIX.4.4|9=60|35=0|34=5|49=CLIENT1|52=20190919-00:02:17.393|56=ORDERMATCH|10=183|8=FIX.4.4|9=60|35=0|34=6|49=CLIENT1|52=20190919-00:02:47.426|56=ORDERMATCH|10=184|8=FIX.4.4|9=60|35=0|34=7|49=CLIENT1|52=20190919-00:03:17.460|56=ORDERMATCH|10=181|8=FIX.4.4|9=60|35=0|34=8|49=CLIENT1|52=20190919-00:03:47.492|56=ORDERMATCH|10=190|8=FIX.4.4|9=60|35=0|34=9|49=CLIENT1|52=20190919-00:04:17.525|56=ORDERMATCH|10=186|8=FIX.4.4|9=61|35=0|34=10|49=CLIENT1|52=20190919-00:04:47.559|56=ORDERMATCH|10=237|8=FIX.4.4|9=61|35=0|34=11|49=CLIENT1|52=20190919-00:05:17.592|56=ORDERMATCH|10=233|8=FIX.4.4|9=61|35=0|34=12|49=CLIENT1|52=20190919-00:05:47.625|56=ORDERMATCH|10=234|8=FIX.4.4|9=61|35=0|34=13|49=CLIENT1|52=20190919-00:06:17.658|56=ORDERMATCH|10=239|8=FIX.4.4|9=61|35=0|34=14|49=CLIENT1|52=20190919-00:06:47.691|56=ORDERMATCH|10=240|8=FIX.4.4|9=61|35=0|34=15|49=CLIENT1|52=20190919-00:07:17.724|56=ORDERMATCH|10=236|8=FIX.4.4|9=61|35=0|34=16|49=CLIENT1|52=20190919-00:07:47.757|56=ORDERMATCH|10=246|8=FIX.4.4|9=61|35=0|34=17|49=CLIENT1|52=20190919-00:08:17.790|56=ORDERMATCH|10=242|8=FIX.4.4|9=61|35=0|34=18|49=CLIENT1|52=20190919-00:08:47.823|56=ORDERMATCH|10=243|8=FIX.4.4|9=61|35=0|34=19|49=CLIENT1|52=20190919-00:09:17.858|56=ORDERMATCH|10=250|8=FIX.4.4|9=61|35=0|34=20|49=CLIENT1|52=20190919-00:09:47.890|56=ORDERMATCH|10=241|8=FIX.4.4|9=61|35=0|34=21|49=CLIENT1|52=20190919-00:10:17.005|56=ORDERMATCH|10=219|8=FIX.4.4|9=61|35=0|34=22|49=CLIENT1|52=20190919-00:10:47.026|56=ORDERMATCH|10=226|8=FIX.4.4|9=61|35=0|34=23|49=CLIENT1|52=20190919-00:11:17.052|56=ORDERMATCH|10=224|8=FIX.4.4|9=61|35=0|34=24|49=CLIENT1|52=20190919-00:11:47.019|56=ORDERMATCH|10=231|8=FIX.4.4|9=61|35=0|34=25|49=CLIENT1|52=20190919-00:12:17.052|56=ORDERMATCH|10=227|8=FIX.4.4|9=61|35=0|34=26|49=CLIENT1|52=20190919-00:12:47.085|56=ORDERMATCH|10=237|8=FIX.4.4|9=61|35=0|34=27|49=CLIENT1|52=20190919-00:13:17.118|56=ORDERMATCH|10=233|8=FIX.4.4|9=61|35=0|34=28|49=CLIENT1|52=20190919-00:13:47.151|56=ORDERMATCH|10=234|8=FIX.4.4|9=61|35=0|34=29|49=CLIENT1|52=20190919-00:14:17.185|56=ORDERMATCH|10=240|8=FIX.4.4|9=61|35=0|34=30|49=CLIENT1|52=20190919-00:14:47.218|56=ORDERMATCH|10=232|8=FIX.4.4|9=61|35=0|34=31|49=CLIENT1|52=20190919-00:15:17.251|56=ORDERMATCH|10=228|8=FIX.4.4|9=61|35=0|34=32|49=CLIENT1|52=20190919-00:15:47.265|56=ORDERMATCH|10=237|8=FIX.4.4|9=61|35=0|34=33|49=CLIENT1|52=20190919-00:16:17.293|56=ORDERMATCH|10=237|8=FIX.4.4|9=61|35=0|34=34|49=CLIENT1|52=20190919-00:16:47.318|56=ORDERMATCH|10=239|8=FIX.4.4|9=61|35=0|34=35|49=CLIENT1|52=20190919-00:17:17.351|56=ORDERMATCH|10=235|8=FIX.4.4|9=61|35=0|34=36|49=CLIENT1|52=20190919-00:17:47.380|56=ORDERMATCH|10=241|8=FIX.4.4|9=61|35=0|34=37|49=CLIENT1|52=20190919-00:18:17.387|56=ORDERMATCH|10=247|8=FIX.4.4|9=61|35=0|34=38|49=CLIENT1|52=20190919-00:18:47.395|56=ORDERMATCH|10=250|8=FIX.4.4|9=61|35=0|34=39|49=CLIENT1|52=20190919-00:19:17.426|56=ORDERMATCH|10=244|8=FIX.4.4|9=61|35=0|34=40|49=CLIENT1|52=20190919-00:19:47.453|56=ORDERMATCH|10=239|8=FIX.4.4|9=61|35=0|34=41|49=CLIENT1|52=20190919-00:20:17.482|56=ORDERMATCH|10=231|8=FIX.4.4|9=61|35=0|34=42|49=CLIENT1|52=20190919-00:20:47.511|56=ORDERMATCH|10=228|8=FIX.4.4|9=61|35=0|34=43|49=CLIENT1|52=20190919-00:21:17.541|56=ORDERMATCH|10=230|8=FIX.4.4|9=61|35=0|34=44|49=CLIENT1|52=20190919-00:21:47.573|56=ORDERMATCH|10=239|8=FIX.4.4|9=61|35=0|34=45|49=CLIENT1|52=20190919-00:22:17.607|56=ORDERMATCH|10=236|8=FIX.4.4|9=61|35=0|34=46|49=CLIENT1|52=20190919-00:22:47.639|56=ORDERMATCH|10=245|8=FIX.4.4|9=61|35=0|34=47|49=CLIENT1|52=20190919-00:23:17.672|56=ORDERMATCH|10=241|8=FIX.4.4|9=61|35=0|34=48|49=CLIENT1|52=20190919-00:23:47.683|56=ORDERMATCH|10=247|8=FIX.4.4|9=61|35=0|34=49|49=CLIENT1|52=20190919-00:24:17.712|56=ORDERMATCH|10=239|8=FIX.4.4|9=61|35=0|34=50|49=CLIENT1|52=20190919-00:24:47.732|56=ORDERMATCH|10=236|8=FIX.4.4|9=61|35=0|34=51|49=CLIENT1|52=20190919-00:25:17.765|56=ORDERMATCH|10=241|8=FIX.4.4|9=61|35=0|34=52|49=CLIENT1|52=20190919-00:25:47.797|56=ORDERMATCH|10=250|8=FIX.4.4|9=61|35=0|34=53|49=CLIENT1|52=20190919-00:26:17.827|56=ORDERMATCH|10=243|8=FIX.4.4|9=61|35=0|34=54|49=CLIENT1|52=20190919-00:26:47.852|56=ORDERMATCH|10=245|8=FIX.4.4|9=61|35=0|34=55|49=CLIENT1|52=20190919-00:27:17.862|56=ORDERMATCH|10=245|8=FIX.4.4|9=61|35=0|34=56|49=CLIENT1|52=20190919-00:27:47.894|56=ORDERMATCH|10=254|8=FIX.4.4|9=61|35=0|34=57|49=CLIENT1|52=20190919-00:28:17.927|56=ORDERMATCH|10=250|8=FIX.4.4|9=61|35=0|34=58|49=CLIENT1|52=20190919-00:28:47.002|56=ORDERMATCH|10=238|8=FIX.4.4|9=61|35=0|34=59|49=CLIENT1|52=20190919-00:29:17.036|56=ORDERMATCH|10=244|8=FIX.4.4|9=61|35=0|34=60|49=CLIENT1|52=20190919-00:29:47.015|56=ORDERMATCH|10=236|8=FIX.4.4|9=61|35=0|34=61|49=CLIENT1|52=20190919-00:30:17.048|56=ORDERMATCH|10=232|8=FIX.4.4|9=61|35=0|34=62|49=CLIENT1|52=20190919-00:30:47.079|56=ORDERMATCH|10=240|8=FIX.4.4|9=61|35=0|34=63|49=CLIENT1|52=20190919-00:31:17.110|56=ORDERMATCH|10=225|8=FIX.4.4|9=61|35=0|34=64|49=CLIENT1|52=20190919-00:31:47.140|56=ORDERMATCH|10=232|8=FIX.4.4|9=61|35=0|34=65|49=CLIENT1|52=20190919-00:32:17.173|56=ORDERMATCH|10=237|8=FIX.4.4|9=61|35=0|34=66|49=CLIENT1|52=20190919-00:32:47.182|56=ORDERMATCH|10=241|8=FIX.4.4|9=61|35=0|34=67|49=CLIENT1|52=20190919-00:33:17.212|56=ORDERMATCH|10=234|8=FIX.4.4|9=61|35=0|34=68|49=CLIENT1|52=20190919-00:33:47.245|56=ORDERMATCH|10=244|8=FIX.4.4|9=61|35=0|34=69|49=CLIENT1|52=20190919-00:34:17.278|56=ORDERMATCH|10=249|8=FIX.4.4|9=61|35=0|34=70|49=CLIENT1|52=20190919-00:34:47.311|56=ORDERMATCH|10=232|8=FIX.4.4|9=61|35=0|34=71|49=CLIENT1|52=20190919-00:35:17.345|56=ORDERMATCH|10=238|8=FIX.4.4|9=61|35=0|34=72|49=CLIENT1|52=20190919-00:35:47.368|56=ORDERMATCH|10=247|8=FIX.4.4|9=61|35=0|34=73|49=CLIENT1|52=20190919-00:36:17.379|56=ORDERMATCH|10=248|8=FIX.4.4|9=61|35=0|34=74|49=CLIENT1|52=20190919-00:36:47.393|56=ORDERMATCH|10=248|8=FIX.4.4|9=61|35=0|34=75|49=CLIENT1|52=20190919-00:37:17.422|56=ORDERMATCH|10=240|8=FIX.4.4|9=61|35=0|34=76|49=CLIENT1|52=20190919-00:37:47.430|56=ORDERMATCH|10=243|8=FIX.4.4|9=61|35=0|34=77|49=CLIENT1|52=20190919-00:38:17.463|56=ORDERMATCH|10=248|8=FIX.4.4|9=61|35=0|34=78|49=CLIENT1|52=20190919-00:38:47.494|56=ORDERMATCH|10=000|8=FIX.4.4|9=61|35=0|34=79|49=CLIENT1|52=20190919-00:39:17.526|56=ORDERMATCH|10=251|8=FIX.4.4|9=61|35=0|34=80|49=CLIENT1|52=20190919-00:39:47.557|56=ORDERMATCH|10=250|8=FIX.4.4|9=61|35=0|34=81|49=CLIENT1|52=20190919-00:40:17.564|56=ORDERMATCH|10=238|8=FIX.4.4|9=61|35=0|34=82|49=CLIENT1|52=20190919-00:40:47.573|56=ORDERMATCH|10=242|8=FIX.4.4|9=61|35=0|34=83|49=CLIENT1|52=20190919-00:41:17.588|56=ORDERMATCH|10=247|8=FIX.4.4|9=61|35=0|34=84|49=CLIENT1|52=20190919-00:41:47.612|56=ORDERMATCH|10=239|8=FIX.4.4|9=61|35=0|34=85|49=CLIENT1|52=20190919-00:42:17.642|56=ORDERMATCH|10=241|8=FIX.4.4|9=61|35=0|34=86|49=CLIENT1|52=20190919-00:42:47.672|56=ORDERMATCH|10=248|8=FIX.4.4|9=61|35=0|34=87|49=CLIENT1|52=20190919-00:43:17.703|56=ORDERMATCH|10=242|8=FIX.4.4|9=61|35=0|34=88|49=CLIENT1|52=20190919-00:43:47.733|56=ORDERMATCH|10=249|8=FIX.4.4|9=61|35=0|34=89|49=CLIENT1|52=20190919-00:44:17.763|56=ORDERMATCH|10=251|8=FIX.4.4|9=61|35=0|34=90|49=CLIENT1|52=20190919-00:44:47.793|56=ORDERMATCH|10=249|8=FIX.4.4|9=61|35=0|34=91|49=CLIENT1|52=20190919-00:45:17.822|56=ORDERMATCH|10=241|8=FIX.4.4|9=61|35=0|34=92|49=CLIENT1|52=20190919-00:45:47.852|56=ORDERMATCH|10=248|8=FIX.4.4|9=61|35=0|34=93|49=CLIENT1|52=20190919-00:46:17.882|56=ORDERMATCH|10=250|8=FIX.4.4|9=61|35=0|34=94|49=CLIENT1|52=20190919-00:46:47.912|56=ORDERMATCH|10=248|8=FIX.4.4|9=61|35=0|34=95|49=CLIENT1|52=20190919-00:47:17.028|56=ORDERMATCH|10=245|8=FIX.4.4|9=61|35=0|34=96|49=CLIENT1|52=20190919-00:47:47.059|56=ORDERMATCH|10=253|8=FIX.4.4|9=61|35=0|34=97|49=CLIENT1|52=20190919-00:48:17.091|56=ORDERMATCH|10=248|8=FIX.4.4|9=61|35=0|34=98|49=CLIENT1|52=20190919-00:48:47.024|56=ORDERMATCH|10=248|8=FIX.4.4|9=61|35=0|34=99|49=CLIENT1|52=20190919-00:49:17.056|56=ORDERMATCH|10=252|8=FIX.4.4|9=62|35=0|34=100|49=CLIENT1|52=20190919-00:49:47.089|56=ORDERMATCH|10=037|8=FIX.4.4|9=62|35=0|34=101|49=CLIENT1|52=20190919-00:50:17.123|56=ORDERMATCH|10=016|8=FIX.4.4|9=62|35=0|34=102|49=CLIENT1|52=20190919-00:50:47.155|56=ORDERMATCH|10=025|8=FIX.4.4|9=62|35=0|34=103|49=CLIENT1|52=20190919-00:51:17.187|56=ORDERMATCH|10=029|8=FIX.4.4|9=62|35=0|34=104|49=CLIENT1|52=20190919-00:51:47.218|56=ORDERMATCH|10=028|8=FIX.4.4|9=62|35=0|34=105|49=CLIENT1|52=20190919-00:52:17.226|56=ORDERMATCH|10=026|8=FIX.4.4|9=62|35=0|34=106|49=CLIENT1|52=20190919-00:52:47.237|56=ORDERMATCH|10=032|8=FIX.4.4|9=62|35=0|34=107|49=CLIENT1|52=20190919-00:53:17.270|56=ORDERMATCH|10=028|8=FIX.4.4|9=62|35=0|34=108|49=CLIENT1|52=20190919-00:53:47.303|56=ORDERMATCH|10=029|8=FIX.4.4|9=62|35=0|34=109|49=CLIENT1|52=20190919-00:54:17.335|56=ORDERMATCH|10=033|8=FIX.4.4|9=62|35=0|34=110|49=CLIENT1|52=20190919-00:54:47.369|56=ORDERMATCH|10=035|8=FIX.4.4|9=62|35=0|34=111|49=CLIENT1|52=20190919-00:55:17.402|56=ORDERMATCH|10=022|8=FIX.4.4|9=62|35=0|34=112|49=CLIENT1|52=20190919-00:55:47.435|56=ORDERMATCH|10=032|8=FIX.4.4|9=62|35=0|34=113|49=CLIENT1|52=20190919-00:56:17.469|56=ORDERMATCH|10=038|8=FIX.4.4|9=62|35=0|34=114|49=CLIENT1|52=20190919-00:56:47.502|56=ORDERMATCH|10=030|8=FIX.4.4|9=62|35=0|34=115|49=CLIENT1|52=20190919-00:57:17.534|56=ORDERMATCH|10=034|8=FIX.4.4|9=62|35=0|34=116|49=CLIENT1|52=20190919-00:57:47.568|56=ORDERMATCH|10=045|8=FIX.4.4|9=62|35=0|34=117|49=CLIENT1|52=20190919-00:58:17.601|56=ORDERMATCH|10=032|8=FIX.4.4|9=62|35=0|34=118|49=CLIENT1|52=20190919-00:58:47.635|56=ORDERMATCH|10=043|8=FIX.4.4|9=62|35=0|34=119|49=CLIENT1|52=20190919-00:59:17.664|56=ORDERMATCH|10=044|8=FIX.4.4|9=62|35=0|34=120|49=CLIENT1|52=20190919-00:59:47.698|56=ORDERMATCH|10=046|8=FIX.4.4|9=62|35=0|34=121|49=CLIENT1|52=20190919-01:00:17.731|56=ORDERMATCH|10=019|8=FIX.4.4|9=62|35=0|34=122|49=CLIENT1|52=20190919-01:00:47.764|56=ORDERMATCH|10=029|8=FIX.4.4|9=62|35=0|34=123|49=CLIENT1|52=20190919-01:01:17.795|56=ORDERMATCH|10=032|8=FIX.4.4|9=62|35=0|34=124|49=CLIENT1|52=20190919-01:01:47.825|56=ORDERMATCH|10=030|8=FIX.4.4|9=62|35=0|34=125|49=CLIENT1|52=20190919-01:02:17.855|56=ORDERMATCH|10=032|8=FIX.4.4|9=62|35=0|34=126|49=CLIENT1|52=20190919-01:02:47.881|56=ORDERMATCH|10=035|8=FIX.4.4|9=62|35=0|34=127|49=CLIENT1|52=20190919-01:03:17.910|56=ORDERMATCH|10=027|8=FIX.4.4|9=62|35=0|34=128|49=CLIENT1|52=20190919-01:03:47.001|56=ORDERMATCH|10=022|8=FIX.4.4|9=62|35=0|34=129|49=CLIENT1|52=20190919-01:04:17.031|56=ORDERMATCH|10=024|8=FIX.4.4|9=62|35=0|34=130|49=CLIENT1|52=20190919-01:04:47.061|56=ORDERMATCH|10=022|8=FIX.4.4|9=62|35=0|34=131|49=CLIENT1|52=20190919-01:05:17.028|56=ORDERMATCH|10=024|8=FIX.4.4|9=62|35=0|34=132|49=CLIENT1|52=20190919-01:05:47.058|56=ORDERMATCH|10=031|8=FIX.4.4|9=62|35=0|34=133|49=CLIENT1|52=20190919-01:06:17.087|56=ORDERMATCH|10=032|8=FIX.4.4|9=62|35=0|34=134|49=CLIENT1|52=20190919-01:06:47.117|56=ORDERMATCH|10=030|8=FIX.4.4|9=62|35=0|34=135|49=CLIENT1|52=20190919-01:07:17.147|56=ORDERMATCH|10=032|8=FIX.4.4|9=62|35=0|34=136|49=CLIENT1|52=20190919-01:07:47.180|56=ORDERMATCH|10=033|8=FIX.4.4|9=62|35=0|34=137|49=CLIENT1|52=20190919-01:08:17.213|56=ORDERMATCH|10=029|8=FIX.4.4|9=62|35=0|34=138|49=CLIENT1|52=20190919-01:08:47.246|56=ORDERMATCH|10=039|8=FIX.4.4|9=62|35=0|34=139|49=CLIENT1|52=20190919-01:09:17.279|56=ORDERMATCH|10=044|8=FIX.4.4|9=62|35=0|34=140|49=CLIENT1|52=20190919-01:09:47.312|56=ORDERMATCH|10=027|8=FIX.4.4|9=62|35=0|34=141|49=CLIENT1|52=20190919-01:10:17.345|56=ORDERMATCH|10=023|8=FIX.4.4|9=62|35=0|34=142|49=CLIENT1|52=20190919-01:10:47.378|56=ORDERMATCH|10=033|8=FIX.4.4|9=62|35=0|34=143|49=CLIENT1|52=20190919-01:11:17.411|56=ORDERMATCH|10=020|8=FIX.4.4|9=62|35=0|34=144|49=CLIENT1|52=20190919-01:11:47.445|56=ORDERMATCH|10=031|8=FIX.4.4|9=62|35=0|34=145|49=CLIENT1|52=20190919-01:12:17.475|56=ORDERMATCH|10=033|8=FIX.4.4|9=62|35=0|34=146|49=CLIENT1|52=20190919-01:12:47.506|56=ORDERMATCH|10=032|8=FIX.4.4|9=62|35=0|34=147|49=CLIENT1|52=20190919-01:13:17.518|56=ORDERMATCH|10=034|8=FIX.4.4|9=62|35=0|34=148|49=CLIENT1|52=20190919-01:13:47.551|56=ORDERMATCH|10=035|8=FIX.4.4|9=62|35=0|34=149|49=CLIENT1|52=20190919-01:14:17.585|56=ORDERMATCH|10=041|8=FIX.4.4|9=62|35=0|34=150|49=CLIENT1|52=20190919-01:14:47.618|56=ORDERMATCH|10=033|8=FIX.4.4|9=62|35=0|34=151|49=CLIENT1|52=20190919-01:15:17.651|56=ORDERMATCH|10=029|8=FIX.4.4|9=62|35=0|34=152|49=CLIENT1|52=20190919-01:15:47.680|56=ORDERMATCH|10=035|8=FIX.4.4|9=62|35=0|34=153|49=CLIENT1|52=20190919-01:16:17.716|56=ORDERMATCH|10=034|8=FIX.4.4|9=62|35=0|34=154|49=CLIENT1|52=20190919-01:16:47.748|56=ORDERMATCH|10=043|8=FIX.4.4|9=62|35=0|34=155|49=CLIENT1|52=20190919-01:17:17.781|56=ORDERMATCH|10=039|8=FIX.4.4|9=62|35=0|34=156|49=CLIENT1|52=20190919-01:17:47.815|56=ORDERMATCH|10=041|8=FIX.4.4|9=62|35=0|34=157|49=CLIENT1|52=20190919-01:18:17.848|56=ORDERMATCH|10=046|8=FIX.4.4|9=62|35=0|34=158|49=CLIENT1|52=20190919-01:18:47.881|56=ORDERMATCH|10=047|8=FIX.4.4|9=62|35=0|34=159|49=CLIENT1|52=20190919-01:19:17.913|56=ORDERMATCH|10=042|8=FIX.4.4|9=62|35=0|34=160|49=CLIENT1|52=20190919-01:19:47.947|56=ORDERMATCH|10=044|8=FIX.4.4|9=62|35=0|34=161|49=CLIENT1|52=20190919-01:20:17.015|56=ORDERMATCH|10=020|8=FIX.4.4|9=62|35=0|34=162|49=CLIENT1|52=20190919-01:20:47.011|56=ORDERMATCH|10=020|8=FIX.4.4|9=62|35=0|34=163|49=CLIENT1|52=20190919-01:21:17.044|56=ORDERMATCH|10=025|8=FIX.4.4|9=62|35=0|34=164|49=CLIENT1|52=20190919-01:21:47.075|56=ORDERMATCH|10=033|8=FIX.4.4|9=62|35=0|34=165|49=CLIENT1|52=20190919-01:22:17.083|56=ORDERMATCH|10=031|8=FIX.4.4|9=62|35=0|34=166|49=CLIENT1|52=20190919-01:22:47.116|56=ORDERMATCH|10=032|8=FIX.4.4|9=62|35=0|34=167|49=CLIENT1|52=20190919-01:23:17.149|56=ORDERMATCH|10=037|8=FIX.4.4|9=62|35=0|34=168|49=CLIENT1|52=20190919-01:23:47.177|56=ORDERMATCH|10=042|8=FIX.4.4|9=62|35=0|34=169|49=CLIENT1|52=20190919-01:24:17.210|56=ORDERMATCH|10=029|8=FIX.4.4|9=62|35=0|34=170|49=CLIENT1|52=20190919-01:24:47.243|56=ORDERMATCH|10=030|8=FIX.4.4|9=62|35=0|34=171|49=CLIENT1|52=20190919-01:25:17.277|56=ORDERMATCH|10=036|8=FIX.4.4|9=62|35=0|34=172|49=CLIENT1|52=20190919-01:25:47.310|56=ORDERMATCH|10=028|8=FIX.4.4|9=62|35=0|34=173|49=CLIENT1|52=20190919-01:26:17.344|56=ORDERMATCH|10=034|8=FIX.4.4|9=62|35=0|34=174|49=CLIENT1|52=20190919-01:26:47.377|56=ORDERMATCH|10=044|8=FIX.4.4|9=62|35=0|34=175|49=CLIENT1|52=20190919-01:27:17.409|56=ORDERMATCH|10=039|8=FIX.4.4|9=62|35=0|34=176|49=CLIENT1|52=20190919-01:27:47.442|56=ORDERMATCH|10=040|8=FIX.4.4|9=62|35=0|34=177|49=CLIENT1|52=20190919-01:28:17.473|56=ORDERMATCH|10=043|8=FIX.4.4|9=62|35=0|34=178|49=CLIENT1|52=20190919-01:28:47.508|56=ORDERMATCH|10=046|8=FIX.4.4|9=62|35=0|34=179|49=CLIENT1|52=20190919-01:29:17.540|56=ORDERMATCH|10=041|8=FIX.4.4|9=62|35=0|34=180|49=CLIENT1|52=20190919-01:29:47.570|56=ORDERMATCH|10=039|8=FIX.4.4|9=62|35=0|34=181|49=CLIENT1|52=20190919-01:30:17.602|56=ORDERMATCH|10=025|8=FIX.4.4|9=62|35=0|34=182|49=CLIENT1|52=20190919-01:30:47.633|56=ORDERMATCH|10=033|8=FIX.4.4|9=62|35=0|34=183|49=CLIENT1|52=20190919-01:31:17.663|56=ORDERMATCH|10=035|8=FIX.4.4|9=62|35=0|34=184|49=CLIENT1|52=20190919-01:31:47.692|56=ORDERMATCH|10=041|8=FIX.4.4|9=62|35=0|34=185|49=CLIENT1|52=20190919-01:32:17.722|56=ORDERMATCH|10=034|8=FIX.4.4|9=62|35=0|34=186|49=CLIENT1|52=20190919-01:32:47.741|56=ORDERMATCH|10=039|8=FIX.4.4|9=62|35=0|34=187|49=CLIENT1|52=20190919-01:33:17.750|56=ORDERMATCH|10=038|8=FIX.4.4|9=62|35=0|34=188|49=CLIENT1|52=20190919-01:33:47.760|56=ORDERMATCH|10=043|8=FIX.4.4|9=62|35=0|34=189|49=CLIENT1|52=20190919-01:34:17.770|56=ORDERMATCH|10=043|8=FIX.4.4|9=62|35=0|34=190|49=CLIENT1|52=20190919-01:34:47.779|56=ORDERMATCH|10=047|8=FIX.4.4|9=62|35=0|34=191|49=CLIENT1|52=20190919-01:35:17.789|56=ORDERMATCH|10=047|8=FIX.4.4|9=62|35=0|34=192|49=CLIENT1|52=20190919-01:35:47.799|56=ORDERMATCH|10=052|8=FIX.4.4|9=62|35=0|34=193|49=CLIENT1|52=20190919-01:36:17.832|56=ORDERMATCH|10=039|8=FIX.4.4|9=62|35=0|34=194|49=CLIENT1|52=20190919-01:36:47.865|56=ORDERMATCH|10=049|8=FIX.4.4|9=62|35=0|34=195|49=CLIENT1|52=20190919-01:37:17.876|56=ORDERMATCH|10=050|8=FIX.4.4|9=62|35=0|34=196|49=CLIENT1|52=20190919-01:37:47.901|56=ORDERMATCH|10=043|8=FIX.4.4|9=62|35=0|34=197|49=CLIENT1|52=20190919-01:38:17.016|56=ORDERMATCH|10=039|8=FIX.4.4|9=62|35=0|34=198|49=CLIENT1|52=20190919-01:38:47.050|56=ORDERMATCH|10=041|8=FIX.4.4|9=62|35=0|34=199|49=CLIENT1|52=20190919-01:39:17.083|56=ORDERMATCH|10=046|8=FIX.4.4|9=62|35=0|34=200|49=CLIENT1|52=20190919-01:39:47.030|56=ORDERMATCH|10=024|8=FIX.4.4|9=62|35=0|34=201|49=CLIENT1|52=20190919-01:40:17.063|56=ORDERMATCH|10=020|8=FIX.4.4|9=62|35=0|34=202|49=CLIENT1|52=20190919-01:40:47.096|56=ORDERMATCH|10=030|8=FIX.4.4|9=62|35=0|34=203|49=CLIENT1|52=20190919-01:41:17.128|56=ORDERMATCH|10=025|8=FIX.4.4|9=62|35=0|34=204|49=CLIENT1|52=20190919-01:41:47.161|56=ORDERMATCH|10=026|8=FIX.4.4|9=62|35=0|34=205|49=CLIENT1|52=20190919-01:42:17.193|56=ORDERMATCH|10=030|8=FIX.4.4|9=62|35=0|34=206|49=CLIENT1|52=20190919-01:42:47.226|56=ORDERMATCH|10=031|8=FIX.4.4|9=62|35=0|34=207|49=CLIENT1|52=20190919-01:43:17.259|56=ORDERMATCH|10=036|8=FIX.4.4|9=62|35=0|34=208|49=CLIENT1|52=20190919-01:43:47.292|56=ORDERMATCH|10=037|8=FIX.4.4|9=62|35=0|34=209|49=CLIENT1|52=20190919-01:44:17.324|56=ORDERMATCH|10=032|8=FIX.4.4|9=62|35=0|34=210|49=CLIENT1|52=20190919-01:44:47.357|56=ORDERMATCH|10=033|8=FIX.4.4|9=62|35=0|34=211|49=CLIENT1|52=20190919-01:45:17.388|56=ORDERMATCH|10=036|8=FIX.4.4|9=62|35=0|34=212|49=CLIENT1|52=20190919-01:45:47.418|56=ORDERMATCH|10=034|8=FIX.4.4|9=62|35=0|34=213|49=CLIENT1|52=20190919-01:46:17.448|56=ORDERMATCH|10=036|8=FIX.4.4|9=62|35=0|34=214|49=CLIENT1|52=20190919-01:46:47.478|56=ORDERMATCH|10=043|8=FIX.4.4|9=62|35=0|34=215|49=CLIENT1|52=20190919-01:47:17.508|56=ORDERMATCH|10=036|8=FIX.4.4|9=62|35=0|34=216|49=CLIENT1|52=20190919-01:47:47.528|56=ORDERMATCH|10=042|8=FIX.4.4|9=62|35=0|34=217|49=CLIENT1|52=20190919-01:48:17.558|56=ORDERMATCH|10=044|8=FIX.4.4|9=62|35=0|34=218|49=CLIENT1|52=20190919-01:48:47.586|56=ORDERMATCH|10=049|8=FIX.4.4|9=62|35=0|34=219|49=CLIENT1|52=20190919-01:49:17.619|56=ORDERMATCH|10=045|8=FIX.4.4|9=62|35=0|34=220|49=CLIENT1|52=20190919-01:49:47.651|56=ORDERMATCH|10=036|8=FIX.4.4|9=62|35=0|34=221|49=CLIENT1|52=20190919-01:50:17.685|56=ORDERMATCH|10=033|8=FIX.4.4|9=62|35=0|34=222|49=CLIENT1|52=20190919-01:50:47.717|56=ORDERMATCH|10=033|8=FIX.4.4|9=62|35=0|34=223|49=CLIENT1|52=20190919-01:51:17.750|56=ORDERMATCH|10=029|8=FIX.4.4|9=62|35=0|34=224|49=CLIENT1|52=20190919-01:51:47.783|56=ORDERMATCH|10=039|8=FIX.4.4|9=62|35=0|34=225|49=CLIENT1|52=20190919-01:52:17.816|56=ORDERMATCH|10=035|8=FIX.4.4|9=62|35=0|34=226|49=CLIENT1|52=20190919-01:52:47.849|56=ORDERMATCH|10=045|8=FIX.4.4|9=62|35=0|34=227|49=CLIENT1|52=20190919-01:53:17.882|56=ORDERMATCH|10=041|8=FIX.4.4|9=62|35=0|34=228|49=CLIENT1|52=20190919-01:53:47.913|56=ORDERMATCH|10=040|8=FIX.4.4|9=62|35=0|34=229|49=CLIENT1|52=20190919-01:54:17.008|56=ORDERMATCH|10=034|8=FIX.4.4|9=62|35=0|34=230|49=CLIENT1|52=20190919-01:54:47.042|56=ORDERMATCH|10=027|8=FIX.4.4|9=62|35=0|34=231|49=CLIENT1|52=20190919-01:55:17.012|56=ORDERMATCH|10=023|8=FIX.4.4|9=62|35=0|34=232|49=CLIENT1|52=20190919-01:55:47.043|56=ORDERMATCH|10=031|8=FIX.4.4|9=62|35=0|34=233|49=CLIENT1|52=20190919-01:56:17.075|56=ORDERMATCH|10=035|8=FIX.4.4|9=62|35=0|34=234|49=CLIENT1|52=20190919-01:56:47.102|56=ORDERMATCH|10=030|8=FIX.4.4|9=62|35=0|34=235|49=CLIENT1|52=20190919-01:57:17.135|56=ORDERMATCH|10=035|8=FIX.4.4|9=62|35=0|34=236|49=CLIENT1|52=20190919-01:57:47.168|56=ORDERMATCH|10=045|8=FIX.4.4|9=62|35=0|34=237|49=CLIENT1|52=20190919-01:58:17.201|56=ORDERMATCH|10=032|8=FIX.4.4|9=62|35=0|34=238|49=CLIENT1|52=20190919-01:58:47.220|56=ORDERMATCH|10=037|8=FIX.4.4|9=62|35=0|34=239|49=CLIENT1|52=20190919-01:59:17.229|56=ORDERMATCH|10=045|8=FIX.4.4|9=62|35=0|34=240|49=CLIENT1|52=20190919-01:59:47.238|56=ORDERMATCH|10=040|8=FIX.4.4|9=62|35=0|34=241|49=CLIENT1|52=20190919-02:00:17.246|56=ORDERMATCH|10=024|8=FIX.4.4|9=62|35=0|34=242|49=CLIENT1|52=20190919-02:00:47.255|56=ORDERMATCH|10=028|8=FIX.4.4|9=62|35=0|34=243|49=CLIENT1|52=20190919-02:01:17.270|56=ORDERMATCH|10=024|8=FIX.4.4|9=62|35=0|34=244|49=CLIENT1|52=20190919-02:01:47.301|56=ORDERMATCH|10=023|8=FIX.4.4|9=62|35=0|34=245|49=CLIENT1|52=20190919-02:02:17.335|56=ORDERMATCH|10=029|8=FIX.4.4|9=62|35=0|34=246|49=CLIENT1|52=20190919-02:02:47.367|56=ORDERMATCH|10=038|8=FIX.4.4|9=62|35=0|34=247|49=CLIENT1|52=20190919-02:03:17.397|56=ORDERMATCH|10=040|8=FIX.4.4|9=62|35=0|34=248|49=CLIENT1|52=20190919-02:03:47.427|56=ORDERMATCH|10=038|8=FIX.4.4|9=62|35=0|34=249|49=CLIENT1|52=20190919-02:04:17.457|56=ORDERMATCH|10=040|8=FIX.4.4|9=62|35=0|34=250|49=CLIENT1|52=20190919-02:04:47.487|56=ORDERMATCH|10=038|8=FIX.4.4|9=62|35=0|34=251|49=CLIENT1|52=20190919-02:05:17.518|56=ORDERMATCH|10=032|8=FIX.4.4|9=62|35=0|34=252|49=CLIENT1|52=20190919-02:05:47.551|56=ORDERMATCH|10=033|8=FIX.4.4|9=62|35=0|34=253|49=CLIENT1|52=20190919-02:06:17.585|56=ORDERMATCH|10=039|8=FIX.4.4|9=62|35=0|34=254|49=CLIENT1|52=20190919-02:06:47.618|56=ORDERMATCH|10=040|8=FIX.4.4|9=62|35=0|34=255|49=CLIENT1|52=20190919-02:07:17.652|56=ORDERMATCH|10=037|8=FIX.4.4|9=62|35=0|34=256|49=CLIENT1|52=20190919-02:07:47.685|56=ORDERMATCH|10=047|8=FIX.4.4|9=62|35=0|34=257|49=CLIENT1|52=20190919-02:08:17.718|56=ORDERMATCH|10=043|8=FIX.4.4|9=62|35=0|34=258|49=CLIENT1|52=20190919-02:08:47.750|56=ORDERMATCH|10=043|8=FIX.4.4|9=62|35=0|34=259|49=CLIENT1|52=20190919-02:09:17.779|56=ORDERMATCH|10=053|8=FIX.4.4|9=62|35=0|34=260|49=CLIENT1|52=20190919-02:09:47.812|56=ORDERMATCH|10=036|8=FIX.4.4|9=62|35=0|34=261|49=CLIENT1|52=20190919-02:10:17.845|56=ORDERMATCH|10=032|8=FIX.4.4|9=62|35=0|34=262|49=CLIENT1|52=20190919-02:10:47.878|56=ORDERMATCH|10=042|8=FIX.4.4|9=62|35=0|34=263|49=CLIENT1|52=20190919-02:11:17.028|56=ORDERMATCH|10=028|8=FIX.4.4|9=62|35=0|34=264|49=CLIENT1|52=20190919-02:11:47.062|56=ORDERMATCH|10=030|8=FIX.4.4|9=62|35=0|34=265|49=CLIENT1|52=20190919-02:12:17.096|56=ORDERMATCH|10=036|8=FIX.4.4|9=62|35=0|34=266|49=CLIENT1|52=20190919-02:12:47.128|56=ORDERMATCH|10=036|8=FIX.4.4|9=62|35=0|34=267|49=CLIENT1|52=20190919-02:13:17.002|56=ORDERMATCH|10=026|8=FIX.4.4|9=62|35=0|34=268|49=CLIENT1|52=20190919-02:13:47.034|56=ORDERMATCH|10=035|8=FIX.4.4|9=62|35=0|34=269|49=CLIENT1|52=20190919-02:14:17.067|56=ORDERMATCH|10=040|8=FIX.4.4|9=62|35=0|34=270|49=CLIENT1|52=20190919-02:14:47.099|56=ORDERMATCH|10=040|8=FIX.4.4|9=62|35=0|34=271|49=CLIENT1|52=20190919-02:15:17.133|56=ORDERMATCH|10=028|8=FIX.4.4|9=62|35=0|34=272|49=CLIENT1|52=20190919-02:15:47.165|56=ORDERMATCH|10=037|8=FIX.4.4|9=62|35=0|34=273|49=CLIENT1|52=20190919-02:16:17.196|56=ORDERMATCH|10=040|8=FIX.4.4|9=62|35=0|34=274|49=CLIENT1|52=20190919-02:16:47.228|56=ORDERMATCH|10=040|8=FIX.4.4|9=62|35=0|34=275|49=CLIENT1|52=20190919-02:17:17.261|56=ORDERMATCH|10=036|8=FIX.4.4|9=62|35=0|34=276|49=CLIENT1|52=20190919-02:17:47.294|56=ORDERMATCH|10=046|8=FIX.4.4|9=62|35=0|34=277|49=CLIENT1|52=20190919-02:18:17.327|56=ORDERMATCH|10=042|8=FIX.4.4|9=62|35=0|34=278|49=CLIENT1|52=20190919-02:18:47.360|56=ORDERMATCH|10=043|8=FIX.4.4|9=62|35=0|34=279|49=CLIENT1|52=20190919-02:19:17.393|56=ORDERMATCH|10=048|8=FIX.4.4|9=62|35=0|34=280|49=CLIENT1|52=20190919-02:19:47.419|56=ORDERMATCH|10=042|8=FIX.4.4|9=62|35=0|34=281|49=CLIENT1|52=20190919-02:20:17.428|56=ORDERMATCH|10=032|8=FIX.4.4|9=62|35=0|34=282|49=CLIENT1|52=20190919-02:20:47.438|56=ORDERMATCH|10=037|8=FIX.4.4|9=62|35=0|34=283|49=CLIENT1|52=20190919-02:21:17.471|56=ORDERMATCH|10=033|8=FIX.4.4|9=62|35=0|34=284|49=CLIENT1|52=20190919-02:21:47.503|56=ORDERMATCH|10=033|8=FIX.4.4|9=62|35=0|34=285|49=CLIENT1|52=20190919-02:22:17.534|56=ORDERMATCH|10=036|8=FIX.4.4|9=62|35=0|34=286|49=CLIENT1|52=20190919-02:22:47.565|56=ORDERMATCH|10=044|8=FIX.4.4|9=62|35=0|34=287|49=CLIENT1|52=20190919-02:23:17.597|56=ORDERMATCH|10=048|8=FIX.4.4|9=62|35=0|34=288|49=CLIENT1|52=20190919-02:23:47.630|56=ORDERMATCH|10=040|8=FIX.4.4|9=62|35=0|34=289|49=CLIENT1|52=20190919-02:24:17.662|56=ORDERMATCH|10=044|8=FIX.4.4|9=62|35=0|34=290|49=CLIENT1|52=20190919-02:24:47.691|56=ORDERMATCH|10=041|8=FIX.4.4|9=62|35=0|34=291|49=CLIENT1|52=20190919-02:25:17.721|56=ORDERMATCH|10=034|8=FIX.4.4|9=62|35=0|34=292|49=CLIENT1|52=20190919-02:25:47.750|56=ORDERMATCH|10=040|8=FIX.4.4|9=62|35=0|34=293|49=CLIENT1|52=20190919-02:26:17.781|56=ORDERMATCH|10=043|8=FIX.4.4|9=62|35=0|34=294|49=CLIENT1|52=20190919-02:26:47.815|56=ORDERMATCH|10=045|8=FIX.4.4|9=62|35=0|34=295|49=CLIENT1|52=20190919-02:27:17.027|56=ORDERMATCH|10=039|8=FIX.4.4|9=62|35=0|34=296|49=CLIENT1|52=20190919-02:27:47.037|56=ORDERMATCH|10=044|8=FIX.4.4|9=62|35=0|34=297|49=CLIENT1|52=20190919-02:28:17.047|56=ORDERMATCH|10=044|8=FIX.4.4|9=62|35=0|34=298|49=CLIENT1|52=20190919-02:28:47.057|56=ORDERMATCH|10=049|8=FIX.4.4|9=62|35=0|34=299|49=CLIENT1|52=20190919-02:29:17.087|56=ORDERMATCH|10=051|8=FIX.4.4|9=62|35=0|34=300|49=CLIENT1|52=20190919-02:29:47.010|56=ORDERMATCH|10=023|8=FIX.4.4|9=62|35=0|34=301|49=CLIENT1|52=20190919-02:30:17.043|56=ORDERMATCH|10=019|8=FIX.4.4|9=62|35=0|34=302|49=CLIENT1|52=20190919-02:30:47.076|56=ORDERMATCH|10=029|8=FIX.4.4|9=62|35=0|34=303|49=CLIENT1|52=20190919-02:31:17.105|56=ORDERMATCH|10=021|8=FIX.4.4|9=62|35=0|34=304|49=CLIENT1|52=20190919-02:31:47.137|56=ORDERMATCH|10=030|8=FIX.4.4|9=62|35=0|34=305|49=CLIENT1|52=20190919-02:32:17.169|56=ORDERMATCH|10=034|8=FIX.4.4|9=62|35=0|34=306|49=CLIENT1|52=20190919-02:32:47.201|56=ORDERMATCH|10=025|8=FIX.4.4|9=62|35=0|34=307|49=CLIENT1|52=20190919-02:33:17.234|56=ORDERMATCH|10=030|8=FIX.4.4|9=62|35=0|34=308|49=CLIENT1|52=20190919-02:33:47.266|56=ORDERMATCH|10=039|8=FIX.4.4|9=62|35=0|34=309|49=CLIENT1|52=20190919-02:34:17.296|56=ORDERMATCH|10=041|8=FIX.4.4|9=62|35=0|34=310|49=CLIENT1|52=20190919-02:34:47.325|56=ORDERMATCH|10=029|8=FIX.4.4|9=62|35=0|34=311|49=CLIENT1|52=20190919-02:35:17.355|56=ORDERMATCH|10=031|8=FIX.4.4|9=62|35=0|34=312|49=CLIENT1|52=20190919-02:35:47.387|56=ORDERMATCH|10=040|8=FIX.4.4|9=62|35=0|34=313|49=CLIENT1|52=20190919-02:36:17.417|56=ORDERMATCH|10=033|8=FIX.4.4|9=62|35=0|34=314|49=CLIENT1|52=20190919-02:36:47.447|56=ORDERMATCH|10=040|8=FIX.4.4|9=62|35=0|34=315|49=CLIENT1|52=20190919-02:37:17.477|56=ORDERMATCH|10=042|8=FIX.4.4|9=62|35=0|34=316|49=CLIENT1|52=20190919-02:37:47.507|56=ORDERMATCH|10=040|8=FIX.4.4|9=62|35=0|34=317|49=CLIENT1|52=20190919-02:38:17.539|56=ORDERMATCH|10=044|8=FIX.4.4|9=62|35=0|34=318|49=CLIENT1|52=20190919-02:38:47.567|56=ORDERMATCH|10=049|8=FIX.4.4|9=62|35=0|34=319|49=CLIENT1|52=20190919-02:39:17.577|56=ORDERMATCH|10=049|8=FIX.4.4|9=62|35=0|34=320|49=CLIENT1|52=20190919-02:39:47.586|56=ORDERMATCH|10=044|8=FIX.4.4|9=62|35=0|34=321|49=CLIENT1|52=20190919-02:40:17.600|56=ORDERMATCH|10=021|8=FIX.4.4|9=62|35=0|34=322|49=CLIENT1|52=20190919-02:40:47.633|56=ORDERMATCH|10=031|8=FIX.4.4|9=62|35=0|34=323|49=CLIENT1|52=20190919-02:41:17.665|56=ORDERMATCH|10=035|8=FIX.4.4|9=62|35=0|34=324|49=CLIENT1|52=20190919-02:41:47.698|56=ORDERMATCH|10=045|8=FIX.4.4|9=62|35=0|34=325|49=CLIENT1|52=20190919-02:42:17.730|56=ORDERMATCH|10=031|8=FIX.4.4|9=62|35=0|34=326|49=CLIENT1|52=20190919-02:42:47.762|56=ORDERMATCH|10=040|8=FIX.4.4|9=62|35=0|34=327|49=CLIENT1|52=20190919-02:43:17.796|56=ORDERMATCH|10=046|8=FIX.4.4|9=62|35=0|34=328|49=CLIENT1|52=20190919-02:43:47.827|56=ORDERMATCH|10=045|8=FIX.4.4|9=62|35=0|34=329|49=CLIENT1|52=20190919-02:44:17.010|56=ORDERMATCH|10=028|8=FIX.4.4|9=62|35=0|34=330|49=CLIENT1|52=20190919-02:44:47.043|56=ORDERMATCH|10=029|8=FIX.4.4|9=62|35=0|34=331|49=CLIENT1|52=20190919-02:45:17.076|56=ORDERMATCH|10=034|8=FIX.4.4|9=62|35=0|34=332|49=CLIENT1|52=20190919-02:45:47.110|56=ORDERMATCH|10=027|8=FIX.4.4|9=62|35=0|34=333|49=CLIENT1|52=20190919-02:46:17.140|56=ORDERMATCH|10=029|8=FIX.4.4|9=62|35=0|34=334|49=CLIENT1|52=20190919-02:46:47.174|56=ORDERMATCH|10=040|8=FIX.4.4|9=62|35=0|34=335|49=CLIENT1|52=20190919-02:47:17.029|56=ORDERMATCH|10=038|8=FIX.4.4|9=62|35=0|34=336|49=CLIENT1|52=20190919-02:47:47.062|56=ORDERMATCH|10=039|8=FIX.4.4|9=62|35=0|34=337|49=CLIENT1|52=20190919-02:48:17.095|56=ORDERMATCH|10=044|8=FIX.4.4|9=62|35=0|34=338|49=CLIENT1|52=20190919-02:48:47.128|56=ORDERMATCH|10=045|8=FIX.4.4|9=62|35=0|34=339|49=CLIENT1|52=20190919-02:49:17.161|56=ORDERMATCH|10=041|8=FIX.4.4|9=62|35=0|34=340|49=CLIENT1|52=20190919-02:49:47.195|56=ORDERMATCH|10=043|8=FIX.4.4|9=62|35=0|34=341|49=CLIENT1|52=20190919-02:50:17.228|56=ORDERMATCH|10=030|8=FIX.4.4|9=62|35=0|34=342|49=CLIENT1|52=20190919-02:50:47.254|56=ORDERMATCH|10=033|8=FIX.4.4|9=62|35=0|34=343|49=CLIENT1|52=20190919-02:51:17.264|56=ORDERMATCH|10=033|8=FIX.4.4|9=62|35=0|34=344|49=CLIENT1|52=20190919-02:51:47.286|56=ORDERMATCH|10=041|8=FIX.4.4|9=62|35=0|34=345|49=CLIENT1|52=20190919-02:52:17.319|56=ORDERMATCH|10=037|8=FIX.4.4|9=62|35=0|34=346|49=CLIENT1|52=20190919-02:52:47.352|56=ORDERMATCH|10=038|8=FIX.4.4|9=62|35=0|34=347|49=CLIENT1|52=20190919-02:53:17.390|56=ORDERMATCH|10=039|8=FIX.4.4|9=62|35=0|34=348|49=CLIENT1|52=20190919-02:53:47.424|56=ORDERMATCH|10=041|8=FIX.4.4|9=62|35=0|34=349|49=CLIENT1|52=20190919-02:54:17.457|56=ORDERMATCH|10=046|8=FIX.4.4|9=62|35=0|34=350|49=CLIENT1|52=20190919-02:54:47.489|56=ORDERMATCH|10=046|8=FIX.4.4|9=62|35=0|34=351|49=CLIENT1|52=20190919-02:55:17.522|56=ORDERMATCH|10=033|8=FIX.4.4|9=62|35=0|34=352|49=CLIENT1|52=20190919-02:55:47.555|56=ORDERMATCH|10=043|8=FIX.4.4|9=62|35=0|34=353|49=CLIENT1|52=20190919-02:56:17.564|56=ORDERMATCH|10=042|8=FIX.4.4|9=62|35=0|34=354|49=CLIENT1|52=20190919-02:56:47.596|56=ORDERMATCH|10=051|8=FIX.4.4|9=62|35=0|34=355|49=CLIENT1|52=20190919-02:57:17.629|56=ORDERMATCH|10=047|8=FIX.4.4|9=62|35=0|34=356|49=CLIENT1|52=20190919-02:57:47.662|56=ORDERMATCH|10=048|8=FIX.4.4|9=62|35=0|34=357|49=CLIENT1|52=20190919-02:58:17.696|56=ORDERMATCH|10=054|8=FIX.4.4|9=62|35=0|34=358|49=CLIENT1|52=20190919-02:58:47.729|56=ORDERMATCH|10=055|8=FIX.4.4|9=62|35=0|34=359|49=CLIENT1|52=20190919-02:59:17.762|56=ORDERMATCH|10=051|8=FIX.4.4|9=62|35=0|34=360|49=CLIENT1|52=20190919-02:59:47.796|56=ORDERMATCH|10=053|8=FIX.4.4|9=62|35=0|34=361|49=CLIENT1|52=20190919-03:00:17.003|56=ORDERMATCH|10=019|8=FIX.4.4|9=62|35=0|34=362|49=CLIENT1|52=20190919-03:00:47.035|56=ORDERMATCH|10=028|8=FIX.4.4|9=62|35=0|34=363|49=CLIENT1|52=20190919-03:01:17.069|56=ORDERMATCH|10=034|8=FIX.4.4|9=62|35=0|34=364|49=CLIENT1|52=20190919-03:01:47.092|56=ORDERMATCH|10=034|8=FIX.4.4|9=62|35=0|34=365|49=CLIENT1|52=20190919-03:02:17.125|56=ORDERMATCH|10=030|8=FIX.4.4|9=62|35=0|34=366|49=CLIENT1|52=20190919-03:02:47.158|56=ORDERMATCH|10=040|8=FIX.4.4|9=62|35=0|34=367|49=CLIENT1|52=20190919-03:03:17.019|56=ORDERMATCH|10=035|8=FIX.4.4|9=62|35=0|34=368|49=CLIENT1|52=20190919-03:03:47.051|56=ORDERMATCH|10=035|8=FIX.4.4|9=62|35=0|34=369|49=CLIENT1|52=20190919-03:04:17.083|56=ORDERMATCH|10=039|8=FIX.4.4|9=62|35=0|34=370|49=CLIENT1|52=20190919-03:04:47.116|56=ORDERMATCH|10=031|8=FIX.4.4|9=62|35=0|34=371|49=CLIENT1|52=20190919-03:05:17.137|56=ORDERMATCH|10=033|8=FIX.4.4|9=62|35=0|34=372|49=CLIENT1|52=20190919-03:05:47.170|56=ORDERMATCH|10=034|8=FIX.4.4|9=62|35=0|34=373|49=CLIENT1|52=20190919-03:06:17.202|56=ORDERMATCH|10=029|8=FIX.4.4|9=62|35=0|34=374|49=CLIENT1|52=20190919-03:06:47.232|56=ORDERMATCH|10=036|8=FIX.4.4|9=62|35=0|34=375|49=CLIENT1|52=20190919-03:07:17.242|56=ORDERMATCH|10=036|8=FIX.4.4|9=62|35=0|34=376|49=CLIENT1|52=20190919-03:07:47.275|56=ORDERMATCH|10=046|8=FIX.4.4|9=62|35=0|34=377|49=CLIENT1|52=20190919-03:08:17.308|56=ORDERMATCH|10=042|8=FIX.4.4|9=62|35=0|34=378|49=CLIENT1|52=20190919-03:08:47.341|56=ORDERMATCH|10=043|8=FIX.4.4|9=62|35=0|34=379|49=CLIENT1|52=20190919-03:09:17.373|56=ORDERMATCH|10=047|8=FIX.4.4|9=62|35=0|34=380|49=CLIENT1|52=20190919-03:09:47.388|56=ORDERMATCH|10=048|8=FIX.4.4|9=62|35=0|34=381|49=CLIENT1|52=20190919-03:10:17.422|56=ORDERMATCH|10=027|8=FIX.4.4|9=62|35=0|34=382|49=CLIENT1|52=20190919-03:10:47.454|56=ORDERMATCH|10=036|8=FIX.4.4|9=62|35=0|34=383|49=CLIENT1|52=20190919-03:11:17.483|56=ORDERMATCH|10=037|8=FIX.4.4|9=62|35=0|34=384|49=CLIENT1|52=20190919-03:11:47.516|56=ORDERMATCH|10=038|8=FIX.4.4|9=62|35=0|34=385|49=CLIENT1|52=20190919-03:12:17.550|56=ORDERMATCH|10=035|8=FIX.4.4|9=62|35=0|34=386|49=CLIENT1|52=20190919-03:12:47.571|56=ORDERMATCH|10=042|8=FIX.4.4|9=62|35=0|34=387|49=CLIENT1|52=20190919-03:13:17.598|56=ORDERMATCH|10=050|8=FIX.4.4|9=62|35=0|34=388|49=CLIENT1|52=20190919-03:13:47.631|56=ORDERMATCH|10=042|8=FIX.4.4|9=62|35=0|34=389|49=CLIENT1|52=20190919-03:14:17.671|56=ORDERMATCH|10=045|8=FIX.4.4|9=62|35=0|34=390|49=CLIENT1|52=20190919-03:14:47.704|56=ORDERMATCH|10=037|8=FIX.4.4|9=62|35=0|34=391|49=CLIENT1|52=20190919-03:15:17.737|56=ORDERMATCH|10=042|8=FIX.4.4|9=62|35=0|34=392|49=CLIENT1|52=20190919-03:15:47.770|56=ORDERMATCH|10=043|8=FIX.4.4|9=62|35=0|34=393|49=CLIENT1|52=20190919-03:16:17.803|56=ORDERMATCH|10=039|8=FIX.4.4|9=62|35=0|34=394|49=CLIENT1|52=20190919-03:16:47.006|56=ORDERMATCH|10=038|8=FIX.4.4|9=62|35=0|34=395|49=CLIENT1|52=20190919-03:17:17.032|56=ORDERMATCH|10=036|8=FIX.4.4|9=62|35=0|34=396|49=CLIENT1|52=20190919-03:17:47.066|56=ORDERMATCH|10=047|8=FIX.4.4|9=62|35=0|34=397|49=CLIENT1|52=20190919-03:18:17.099|56=ORDERMATCH|10=052|8=FIX.4.4|9=62|35=0|34=398|49=CLIENT1|52=20190919-03:18:47.131|56=ORDERMATCH|10=043|8=FIX.4.4|9=62|35=0|34=399|49=CLIENT1|52=20190919-03:19:17.163|56=ORDERMATCH|10=047|8=FIX.4.4|9=62|35=0|34=400|49=CLIENT1|52=20190919-03:19:47.017|56=ORDERMATCH|10=031|8=FIX.4.4|9=62|35=0|34=401|49=CLIENT1|52=20190919-03:20:17.048|56=ORDERMATCH|10=025|8=FIX.4.4|9=62|35=0|34=402|49=CLIENT1|52=20190919-03:20:47.072|56=ORDERMATCH|10=026|8=FIX.4.4|9=62|35=0|34=403|49=CLIENT1|52=20190919-03:21:17.082|56=ORDERMATCH|10=026|8=FIX.4.4|9=62|35=0|34=404|49=CLIENT1|52=20190919-03:21:47.100|56=ORDERMATCH|10=021|8=FIX.4.4|9=62|35=0|34=405|49=CLIENT1|52=20190919-03:22:17.134|56=ORDERMATCH|10=027|8=FIX.4.4|9=62|35=0|34=406|49=CLIENT1|52=20190919-03:22:47.167|56=ORDERMATCH|10=037|8=FIX.4.4|9=62|35=0|34=407|49=CLIENT1|52=20190919-03:23:17.200|56=ORDERMATCH|10=024|8=FIX.4.4|9=62|35=0|34=408|49=CLIENT1|52=20190919-03:23:47.232|56=ORDERMATCH|10=033|8=FIX.4.4|9=62|35=0|34=409|49=CLIENT1|52=20190919-03:24:17.263|56=ORDERMATCH|10=036|8=FIX.4.4|9=62|35=0|34=410|49=CLIENT1|52=20190919-03:24:47.273|56=ORDERMATCH|10=032|8=FIX.4.4|9=62|35=0|34=411|49=CLIENT1|52=20190919-03:25:17.301|56=ORDERMATCH|10=023|8=FIX.4.4|9=62|35=0|34=412|49=CLIENT1|52=20190919-03:25:47.330|56=ORDERMATCH|10=029|8=FIX.4.4|9=62|35=0|34=413|49=CLIENT1|52=20190919-03:26:17.361|56=ORDERMATCH|10=032|8=FIX.4.4|9=62|35=0|34=414|49=CLIENT1|52=20190919-03:26:47.394|56=ORDERMATCH|10=042|8=FIX.4.4|9=62|35=0|34=415|49=CLIENT1|52=20190919-03:27:17.409|56=ORDERMATCH|10=038|8=FIX.4.4|9=62|35=0|34=416|49=CLIENT1|52=20190919-03:27:47.429|56=ORDERMATCH|10=044|8=FIX.4.4|9=62|35=0|34=417|49=CLIENT1|52=20190919-03:28:17.462|56=ORDERMATCH|10=040|8=FIX.4.4|9=62|35=0|34=418|49=CLIENT1|52=20190919-03:28:47.475|56=ORDERMATCH|10=048|8=FIX.4.4|9=62|35=0|34=419|49=CLIENT1|52=20190919-03:29:17.482|56=ORDERMATCH|10=045|8=FIX.4.4|9=62|35=0|34=420|49=CLIENT1|52=20190919-03:29:47.513|56=ORDERMATCH|10=035|8=FIX.4.4|9=62|35=0|34=421|49=CLIENT1|52=20190919-03:30:17.546|56=ORDERMATCH|10=031|8=FIX.4.4|9=62|35=0|34=422|49=CLIENT1|52=20190919-03:30:47.579|56=ORDERMATCH|10=041|8=FIX.4.4|9=62|35=0|34=423|49=CLIENT1|52=20190919-03:31:17.609|56=ORDERMATCH|10=034|8=FIX.4.4|9=62|35=0|34=424|49=CLIENT1|52=20190919-03:31:47.622|56=ORDERMATCH|10=033|8=FIX.4.4|9=62|35=0|34=425|49=CLIENT1|52=20190919-03:32:17.653|56=ORDERMATCH|10=036|8=FIX.4.4|9=62|35=0|34=426|49=CLIENT1|52=20190919-03:32:47.686|56=ORDERMATCH|10=046|8=FIX.4.4|9=62|35=0|34=427|49=CLIENT1|52=20190919-03:33:17.718|56=ORDERMATCH|10=041|8=FIX.4.4|9=62|35=0|34=428|49=CLIENT1|52=20190919-03:33:47.010|56=ORDERMATCH|10=030|8=FIX.4.4|9=62|35=0|34=429|49=CLIENT1|52=20190919-03:34:17.041|56=ORDERMATCH|10=033|8=FIX.4.4|9=62|35=0|34=430|49=CLIENT1|52=20190919-03:34:47.074|56=ORDERMATCH|10=034|8=FIX.4.4|9=62|35=0|34=431|49=CLIENT1|52=20190919-03:35:17.108|56=ORDERMATCH|10=031|8=FIX.4.4|9=62|35=0|34=432|49=CLIENT1|52=20190919-03:35:47.140|56=ORDERMATCH|10=031|8=FIX.4.4|9=62|35=0|34=433|49=CLIENT1|52=20190919-03:36:17.172|56=ORDERMATCH|10=035|8=FIX.4.4|9=62|35=0|34=434|49=CLIENT1|52=20190919-03:36:47.197|56=ORDERMATCH|10=046|8=FIX.4.4|9=62|35=0|34=435|49=CLIENT1|52=20190919-03:37:17.228|56=ORDERMATCH|10=040|8=FIX.4.4|9=62|35=0|34=436|49=CLIENT1|52=20190919-03:37:47.261|56=ORDERMATCH|10=041|8=FIX.4.4|9=62|35=0|34=437|49=CLIENT1|52=20190919-03:38:17.295|56=ORDERMATCH|10=047|8=FIX.4.4|9=62|35=0|34=438|49=CLIENT1|52=20190919-03:38:47.328|56=ORDERMATCH|10=048|8=FIX.4.4|9=62|35=0|34=439|49=CLIENT1|52=20190919-03:39:17.005|56=ORDERMATCH|10=039|8=FIX.4.4|9=62|35=0|34=440|49=CLIENT1|52=20190919-03:39:47.015|56=ORDERMATCH|10=035|8=FIX.4.4|9=62|35=0|34=441|49=CLIENT1|52=20190919-03:40:17.025|56=ORDERMATCH|10=026|8=FIX.4.4|9=62|35=0|34=442|49=CLIENT1|52=20190919-03:40:47.053|56=ORDERMATCH|10=031|8=FIX.4.4|9=62|35=0|34=443|49=CLIENT1|52=20190919-03:41:17.085|56=ORDERMATCH|10=035|8=FIX.4.4|9=62|35=0|34=444|49=CLIENT1|52=20190919-03:41:47.118|56=ORDERMATCH|10=036|8=FIX.4.4|9=62|35=0|34=445|49=CLIENT1|52=20190919-03:42:17.135|56=ORDERMATCH|10=034|8=FIX.4.4|9=62|35=0|34=446|49=CLIENT1|52=20190919-03:42:47.168|56=ORDERMATCH|10=044|8=FIX.4.4|9=62|35=0|34=447|49=CLIENT1|52=20190919-03:43:17.198|56=ORDERMATCH|10=046|8=FIX.4.4|9=62|35=0|34=448|49=CLIENT1|52=20190919-03:43:47.232|56=ORDERMATCH|10=039|8=FIX.4.4|9=62|35=0|34=449|49=CLIENT1|52=20190919-03:44:17.265|56=ORDERMATCH|10=044|8=FIX.4.4|9=62|35=0|34=450|49=CLIENT1|52=20190919-03:44:47.298|56=ORDERMATCH|10=045|8=FIX.4.4|9=62|35=0|34=451|49=CLIENT1|52=20190919-03:45:17.323|56=ORDERMATCH|10=033|8=FIX.4.4|9=62|35=0|34=452|49=CLIENT1|52=20190919-03:45:47.356|56=ORDERMATCH|10=043|8=FIX.4.4|9=62|35=0|34=453|49=CLIENT1|52=20190919-03:46:17.387|56=ORDERMATCH|10=046|8=FIX.4.4|9=62|35=0|34=454|49=CLIENT1|52=20190919-03:46:47.421|56=ORDERMATCH|10=039|8=FIX.4.4|9=62|35=0|34=455|49=CLIENT1|52=20190919-03:47:17.454|56=ORDERMATCH|10=044|8=FIX.4.4|9=62|35=0|34=456|49=CLIENT1|52=20190919-03:47:47.484|56=ORDERMATCH|10=051|8=FIX.4.4|9=62|35=0|34=457|49=CLIENT1|52=20190919-03:48:17.516|56=ORDERMATCH|10=046|8=FIX.4.4|9=62|35=0|34=458|49=CLIENT1|52=20190919-03:48:47.549|56=ORDERMATCH|10=056|8=FIX.4.4|9=62|35=0|34=459|49=CLIENT1|52=20190919-03:49:17.581|56=ORDERMATCH|10=051|8=FIX.4.4|9=62|35=0|34=460|49=CLIENT1|52=20190919-03:49:47.614|56=ORDERMATCH|10=043|8=FIX.4.4|9=62|35=0|34=461|49=CLIENT1|52=20190919-03:50:17.647|56=ORDERMATCH|10=039|8=FIX.4.4|9=62|35=0|34=462|49=CLIENT1|52=20190919-03:50:47.022|56=ORDERMATCH|10=030|8=FIX.4.4|9=62|35=0|34=463|49=CLIENT1|52=20190919-03:51:17.056|56=ORDERMATCH|10=036|8=FIX.4.4|9=62|35=0|34=464|49=CLIENT1|52=20190919-03:51:47.088|56=ORDERMATCH|10=045|8=FIX.4.4|9=62|35=0|34=465|49=CLIENT1|52=20190919-03:52:17.107|56=ORDERMATCH|10=036|8=FIX.4.4|9=62|35=0|34=466|49=CLIENT1|52=20190919-03:52:47.141|56=ORDERMATCH|10=038|8=FIX.4.4|9=62|35=0|34=467|49=CLIENT1|52=20190919-03:53:17.171|56=ORDERMATCH|10=040|8=FIX.4.4|9=62|35=0|34=468|49=CLIENT1|52=20190919-03:53:47.198|56=ORDERMATCH|10=053|8=FIX.4.4|9=62|35=0|34=469|49=CLIENT1|52=20190919-03:54:17.231|56=ORDERMATCH|10=040|8=FIX.4.4|9=62|35=0|34=470|49=CLIENT1|52=20190919-03:54:47.246|56=ORDERMATCH|10=041|8=FIX.4.4|9=62|35=0|34=471|49=CLIENT1|52=20190919-03:55:17.279|56=ORDERMATCH|10=046|8=FIX.4.4|9=62|35=0|34=472|49=CLIENT1|52=20190919-03:55:47.312|56=ORDERMATCH|10=038|8=FIX.4.4|9=62|35=0|34=473|49=CLIENT1|52=20190919-03:56:17.342|56=ORDERMATCH|10=040|8=FIX.4.4|9=62|35=0|34=474|49=CLIENT1|52=20190919-03:56:47.020|56=ORDERMATCH|10=037|8=FIX.4.4|9=62|35=0|34=475|49=CLIENT1|52=20190919-03:57:17.052|56=ORDERMATCH|10=041|8=FIX.4.4|9=62|35=0|34=476|49=CLIENT1|52=20190919-03:57:47.085|56=ORDERMATCH|10=051|8=FIX.4.4|9=62|35=0|34=477|49=CLIENT1|52=20190919-03:58:17.118|56=ORDERMATCH|10=047|8=FIX.4.4|9=62|35=0|34=478|49=CLIENT1|52=20190919-03:58:47.143|56=ORDERMATCH|10=049|8=FIX.4.4|9=62|35=0|34=479|49=CLIENT1|52=20190919-03:59:17.153|56=ORDERMATCH|10=049|8=FIX.4.4|9=62|35=0|34=480|49=CLIENT1|52=20190919-03:59:47.166|56=ORDERMATCH|10=048|8=FIX.4.4|9=62|35=0|34=481|49=CLIENT1|52=20190919-04:00:17.199|56=ORDERMATCH|10=039|8=FIX.4.4|9=62|35=0|34=482|49=CLIENT1|52=20190919-04:00:47.232|56=ORDERMATCH|10=031|8=FIX.4.4|9=62|35=0|34=483|49=CLIENT1|52=20190919-04:01:17.264|56=ORDERMATCH|10=035|8=FIX.4.4|9=62|35=0|34=484|49=CLIENT1|52=20190919-04:01:47.297|56=ORDERMATCH|10=045|8=FIX.4.4|9=62|35=0|34=485|49=CLIENT1|52=20190919-04:02:17.328|56=ORDERMATCH|10=039|8=FIX.4.4|9=62|35=0|34=486|49=CLIENT1|52=20190919-04:02:47.362|56=ORDERMATCH|10=041|8=FIX.4.4|9=62|35=0|34=487|49=CLIENT1|52=20190919-04:03:17.390|56=ORDERMATCH|10=041|8=FIX.4.4|9=62|35=0|34=488|49=CLIENT1|52=20190919-04:03:47.424|56=ORDERMATCH|10=043|8=FIX.4.4|9=62|35=0|34=489|49=CLIENT1|52=20190919-04:04:17.455|56=ORDERMATCH|10=046|8=FIX.4.4|9=62|35=0|34=490|49=CLIENT1|52=20190919-04:04:47.464|56=ORDERMATCH|10=041|8=FIX.4.4|9=62|35=0|34=491|49=CLIENT1|52=20190919-04:05:17.473|56=ORDERMATCH|10=040|8=FIX.4.4|9=62|35=0|34=492|49=CLIENT1|52=20190919-04:05:47.484|56=ORDERMATCH|10=046|8=FIX.4.4|9=62|35=0|34=493|49=CLIENT1|52=20190919-04:06:17.516|56=ORDERMATCH|10=041|8=FIX.4.4|9=62|35=0|34=494|49=CLIENT1|52=20190919-04:06:47.541|56=ORDERMATCH|10=043|8=FIX.4.4|9=62|35=0|34=495|49=CLIENT1|52=20190919-04:07:17.574|56=ORDERMATCH|10=048|8=FIX.4.4|9=62|35=0|34=496|49=CLIENT1|52=20190919-04:07:47.010|56=ORDERMATCH|10=037|8=FIX.4.4|9=62|35=0|34=497|49=CLIENT1|52=20190919-04:08:17.043|56=ORDERMATCH|10=042|8=FIX.4.4|9=62|35=0|34=498|49=CLIENT1|52=20190919-04:08:47.072|56=ORDERMATCH|10=048|8=FIX.4.4|9=62|35=0|34=499|49=CLIENT1|52=20190919-04:09:17.103|56=ORDERMATCH|10=042|8=FIX.4.4|9=62|35=0|34=500|49=CLIENT1|52=20190919-04:09:47.136|56=ORDERMATCH|10=034|8=FIX.4.4|9=62|35=0|34=501|49=CLIENT1|52=20190919-04:10:17.169|56=ORDERMATCH|10=030|8=FIX.4.4|9=62|35=0|34=502|49=CLIENT1|52=20190919-04:10:47.203|56=ORDERMATCH|10=023|8=FIX.4.4|9=62|35=0|34=503|49=CLIENT1|52=20190919-04:11:17.236|56=ORDERMATCH|10=028|8=FIX.4.4|9=62|35=0|34=504|49=CLIENT1|52=20190919-04:11:47.270|56=ORDERMATCH|10=030|8=FIX.4.4|9=62|35=0|34=505|49=CLIENT1|52=20190919-04:12:17.298|56=ORDERMATCH|10=039|8=FIX.4.4|9=62|35=0|34=506|49=CLIENT1|52=20190919-04:12:47.331|56=ORDERMATCH|10=031|8=FIX.4.4|9=62|35=0|34=507|49=CLIENT1|52=20190919-04:13:17.364|56=ORDERMATCH|10=036|8=FIX.4.4|9=62|35=0|34=508|49=CLIENT1|52=20190919-04:13:47.375|56=ORDERMATCH|10=042|8=FIX.4.4|9=62|35=0|34=509|49=CLIENT1|52=20190919-04:14:17.006|56=ORDERMATCH|10=032|8=FIX.4.4|9=62|35=0|34=510|49=CLIENT1|52=20190919-04:14:47.018|56=ORDERMATCH|10=030|8=FIX.4.4|9=62|35=0|34=511|49=CLIENT1|52=20190919-04:15:17.050|56=ORDERMATCH|10=025|8=FIX.4.4|9=62|35=0|34=512|49=CLIENT1|52=20190919-04:15:47.070|56=ORDERMATCH|10=031|8=FIX.4.4|9=62|35=0|34=513|49=CLIENT1|52=20190919-04:16:17.099|56=ORDERMATCH|10=041|8=FIX.4.4|9=62|35=0|34=514|49=CLIENT1|52=20190919-04:16:47.118|56=ORDERMATCH|10=037|8=FIX.4.4|9=62|35=0|34=515|49=CLIENT1|52=20190919-04:17:17.139|56=ORDERMATCH|10=039|8=FIX.4.4|9=62|35=0|34=516|49=CLIENT1|52=20190919-04:17:47.161|56=ORDERMATCH|10=038|8=FIX.4.4|9=62|35=0|34=517|49=CLIENT1|52=20190919-04:18:17.194|56=ORDERMATCH|10=043|8=FIX.4.4|9=62|35=0|34=518|49=CLIENT1|52=20190919-04:18:47.227|56=ORDERMATCH|10=044|8=FIX.4.4|9=62|35=0|34=519|49=CLIENT1|52=20190919-04:19:17.259|56=ORDERMATCH|10=048|8=FIX.4.4|9=62|35=0|34=520|49=CLIENT1|52=20190919-04:19:47.292|56=ORDERMATCH|10=040|8=FIX.4.4|9=62|35=0|34=521|49=CLIENT1|52=20190919-04:20:17.322|56=ORDERMATCH|10=024|8=FIX.4.4|9=62|35=0|34=522|49=CLIENT1|52=20190919-04:20:47.355|56=ORDERMATCH|10=034|8=FIX.4.4|9=62|35=0|34=523|49=CLIENT1|52=20190919-04:21:17.384|56=ORDERMATCH|10=035|8=FIX.4.4|9=62|35=0|34=524|49=CLIENT1|52=20190919-04:21:47.418|56=ORDERMATCH|10=037|8=FIX.4.4|9=62|35=0|34=525|49=CLIENT1|52=20190919-04:22:17.451|56=ORDERMATCH|10=033|8=FIX.4.4|9=62|35=0|34=526|49=CLIENT1|52=20190919-04:22:47.477|56=ORDERMATCH|10=045|8=FIX.4.4|9=62|35=0|34=527|49=CLIENT1|52=20190919-04:23:17.510|56=ORDERMATCH|10=032|8=FIX.4.4|9=62|35=0|34=528|49=CLIENT1|52=20190919-04:23:47.524|56=ORDERMATCH|10=041|8=FIX.4.4|9=62|35=0|34=529|49=CLIENT1|52=20190919-04:24:17.007|56=ORDERMATCH|10=036|8=FIX.4.4|9=62|35=0|34=530|49=CLIENT1|52=20190919-04:24:47.039|56=ORDERMATCH|10=036|8=FIX.4.4|9=62|35=0|34=531|49=CLIENT1|52=20190919-04:25:17.072|56=ORDERMATCH|10=032|8=FIX.4.4|9=62|35=0|34=532|49=CLIENT1|52=20190919-04:25:47.104|56=ORDERMATCH|10=032|8=FIX.4.4|9=62|35=0|34=533|49=CLIENT1|52=20190919-04:26:17.138|56=ORDERMATCH|10=038|8=FIX.4.4|9=62|35=0|34=534|49=CLIENT1|52=20190919-04:26:47.168|56=ORDERMATCH|10=045|8=FIX.4.4|9=62|35=0|34=535|49=CLIENT1|52=20190919-04:27:17.201|56=ORDERMATCH|10=032|8=FIX.4.4|9=62|35=0|34=536|49=CLIENT1|52=20190919-04:27:47.215|56=ORDERMATCH|10=041|8=FIX.4.4|9=62|35=0|34=537|49=CLIENT1|52=20190919-04:28:17.248|56=ORDERMATCH|10=046|8=FIX.4.4|9=62|35=0|34=538|49=CLIENT1|52=20190919-04:28:47.272|56=ORDERMATCH|10=047|8=FIX.4.4|9=62|35=0|34=539|49=CLIENT1|52=20190919-04:29:17.302|56=ORDERMATCH|10=040|8=FIX.4.4|9=62|35=0|34=540|49=CLIENT1|52=20190919-04:29:47.329|56=ORDERMATCH|10=044|8=FIX.4.4|9=62|35=0|34=541|49=CLIENT1|52=20190919-04:30:17.358|56=ORDERMATCH|10=036|8=FIX.4.4|9=62|35=0|34=542|49=CLIENT1|52=20190919-04:30:47.390|56=ORDERMATCH|10=036|8=FIX.4.4|9=62|35=0|34=543|49=CLIENT1|52=20190919-04:31:17.418|56=ORDERMATCH|10=036|8=FIX.4.4|9=62|35=0|34=544|49=CLIENT1|52=20190919-04:31:47.444|56=ORDERMATCH|10=039|8=FIX.4.4|9=62|35=0|34=545|49=CLIENT1|52=20190919-04:32:17.022|56=ORDERMATCH|10=030|8=FIX.4.4|9=62|35=0|34=546|49=CLIENT1|52=20190919-04:32:47.054|56=ORDERMATCH|10=039|8=FIX.4.4|9=62|35=0|34=547|49=CLIENT1|52=20190919-04:33:17.087|56=ORDERMATCH|10=044|8=FIX.4.4|9=62|35=0|34=548|49=CLIENT1|52=20190919-04:33:47.119|56=ORDERMATCH|10=044|8=FIX.4.4|9=62|35=0|34=549|49=CLIENT1|52=20190919-04:34:17.152|56=ORDERMATCH|10=040|8=FIX.4.4|9=62|35=0|34=550|49=CLIENT1|52=20190919-04:34:47.185|56=ORDERMATCH|10=041|8=FIX.4.4|9=62|35=0|34=551|49=CLIENT1|52=20190919-04:35:17.215|56=ORDERMATCH|10=034|8=FIX.4.4|9=62|35=0|34=552|49=CLIENT1|52=20190919-04:35:47.248|56=ORDERMATCH|10=044|8=FIX.4.4|9=62|35=0|34=553|49=CLIENT1|52=20190919-04:36:17.281|56=ORDERMATCH|10=040|8=FIX.4.4|9=62|35=0|34=554|49=CLIENT1|52=20190919-04:36:47.314|56=ORDERMATCH|10=041|8=FIX.4.4|9=62|35=0|34=555|49=CLIENT1|52=20190919-04:37:17.347|56=ORDERMATCH|10=046|8=FIX.4.4|9=62|35=0|34=556|49=CLIENT1|52=20190919-04:37:47.375|56=ORDERMATCH|10=051|8=FIX.4.4|9=62|35=0|34=557|49=CLIENT1|52=20190919-04:38:17.408|56=ORDERMATCH|10=047|8=FIX.4.4|9=62|35=0|34=558|49=CLIENT1|52=20190919-04:38:47.430|56=ORDERMATCH|10=046|8=FIX.4.4|9=62|35=0|34=559|49=CLIENT1|52=20190919-04:39:17.463|56=ORDERMATCH|10=051|8=FIX.4.4|9=62|35=0|34=560|49=CLIENT1|52=20190919-04:39:47.484|56=ORDERMATCH|10=049|8=FIX.4.4|9=62|35=0|34=561|49=CLIENT1|52=20190919-04:40:17.510|56=ORDERMATCH|10=029|8=FIX.4.4|9=62|35=0|34=562|49=CLIENT1|52=20190919-04:40:47.541|56=ORDERMATCH|10=037|8=FIX.4.4|9=62|35=0|34=563|49=CLIENT1|52=20190919-04:41:17.007|56=ORDERMATCH|10=033|8=FIX.4.4|9=62|35=0|34=564|49=CLIENT1|52=20190919-04:41:47.032|56=ORDERMATCH|10=035|8=FIX.4.4|9=62|35=0|34=565|49=CLIENT1|52=20190919-04:42:17.065|56=ORDERMATCH|10=040|8=FIX.4.4|9=62|35=0|34=566|49=CLIENT1|52=20190919-04:42:47.092|56=ORDERMATCH|10=044|8=FIX.4.4|9=62|35=0|34=567|49=CLIENT1|52=20190919-04:43:17.116|56=ORDERMATCH|10=040|8=FIX.4.4|9=62|35=0|34=568|49=CLIENT1|52=20190919-04:43:47.149|56=ORDERMATCH|10=050|8=FIX.4.4|9=62|35=0|34=569|49=CLIENT1|52=20190919-04:44:17.182|56=ORDERMATCH|10=046|8=FIX.4.4|9=62|35=0|34=570|49=CLIENT1|52=20190919-04:44:47.216|56=ORDERMATCH|10=039|8=FIX.4.4|9=62|35=0|34=571|49=CLIENT1|52=20190919-04:45:17.247|56=ORDERMATCH|10=042|8=FIX.4.4|9=62|35=0|34=572|49=CLIENT1|52=20190919-04:45:47.281|56=ORDERMATCH|10=044|8=FIX.4.4|9=62|35=0|34=573|49=CLIENT1|52=20190919-04:46:17.299|56=ORDERMATCH|10=052|8=FIX.4.4|9=62|35=0|34=574|49=CLIENT1|52=20190919-04:46:47.332|56=ORDERMATCH|10=044|8=FIX.4.4|9=62|35=0|34=575|49=CLIENT1|52=20190919-04:47:17.365|56=ORDERMATCH|10=049|8=FIX.4.4|9=62|35=0|34=576|49=CLIENT1|52=20190919-04:47:47.398|56=ORDERMATCH|10=059|8=FIX.4.4|9=62|35=0|34=577|49=CLIENT1|52=20190919-04:48:17.430|56=ORDERMATCH|10=045|8=FIX.4.4|9=62|35=0|34=578|49=CLIENT1|52=20190919-04:48:47.014|56=ORDERMATCH|10=047|8=FIX.4.4|9=62|35=0|34=579|49=CLIENT1|52=20190919-04:49:17.046|56=ORDERMATCH|10=051|8=FIX.4.4|9=62|35=0|34=580|49=CLIENT1|52=20190919-04:49:47.060|56=ORDERMATCH|10=042|8=FIX.4.4|9=62|35=0|34=581|49=CLIENT1|52=20190919-04:50:17.096|56=ORDERMATCH|10=041|8=FIX.4.4|9=62|35=0|34=582|49=CLIENT1|52=20190919-04:50:47.109|56=ORDERMATCH|10=040|8=FIX.4.4|9=62|35=0|34=583|49=CLIENT1|52=20190919-04:51:17.143|56=ORDERMATCH|10=037|8=FIX.4.4|9=62|35=0|34=584|49=CLIENT1|52=20190919-04:51:47.166|56=ORDERMATCH|10=046|8=FIX.4.4|9=62|35=0|34=585|49=CLIENT1|52=20190919-04:52:17.174|56=ORDERMATCH|10=044|8=FIX.4.4|9=62|35=0|34=586|49=CLIENT1|52=20190919-04:52:47.200|56=ORDERMATCH|10=038|8=FIX.4.4|9=62|35=0|34=587|49=CLIENT1|52=20190919-04:53:17.233|56=ORDERMATCH|10=043|8=FIX.4.4|9=62|35=0|34=588|49=CLIENT1|52=20190919-04:53:47.259|56=ORDERMATCH|10=055|8=FIX.4.4|9=62|35=0|34=589|49=CLIENT1|52=20190919-04:54:17.282|56=ORDERMATCH|10=050|8=FIX.4.4|9=62|35=0|34=590|49=CLIENT1|52=20190919-04:54:47.315|56=ORDERMATCH|10=042|8=FIX.4.4|9=62|35=0|34=591|49=CLIENT1|52=20190919-04:55:17.348|56=ORDERMATCH|10=047|8=FIX.4.4|9=62|35=0|34=592|49=CLIENT1|52=20190919-04:55:47.373|56=ORDERMATCH|10=049|8=FIX.4.4|9=62|35=0|34=593|49=CLIENT1|52=20190919-04:56:17.406|56=ORDERMATCH|10=045|8=FIX.4.4|9=62|35=0|34=594|49=CLIENT1|52=20190919-04:56:47.440|56=ORDERMATCH|10=047|8=FIX.4.4|9=62|35=0|34=595|49=CLIENT1|52=20190919-04:57:17.473|56=ORDERMATCH|10=052|8=FIX.4.4|9=62|35=0|34=596|49=CLIENT1|52=20190919-04:57:47.505|56=ORDERMATCH|10=052|8=FIX.4.4|9=62|35=0|34=597|49=CLIENT1|52=20190919-04:58:17.016|56=ORDERMATCH|10=048|8=FIX.4.4|9=62|35=0|34=598|49=CLIENT1|52=20190919-04:58:47.048|56=ORDERMATCH|10=057|8=FIX.4.4|9=62|35=0|34=599|49=CLIENT1|52=20190919-04:59:17.076|56=ORDERMATCH|10=057|8=FIX.4.4|9=62|35=0|34=600|49=CLIENT1|52=20190919-04:59:47.107|56=ORDERMATCH|10=038|8=FIX.4.4|9=62|35=0|34=601|49=CLIENT1|52=20190919-05:00:17.140|56=ORDERMATCH|10=020|8=FIX.4.4|9=62|35=0|34=602|49=CLIENT1|52=20190919-05:00:47.170|56=ORDERMATCH|10=027|8=FIX.4.4|9=62|35=0|34=603|49=CLIENT1|52=20190919-05:01:17.201|56=ORDERMATCH|10=021|8=FIX.4.4|9=62|35=0|34=604|49=CLIENT1|52=20190919-05:01:47.235|56=ORDERMATCH|10=032|8=FIX.4.4|9=62|35=0|34=605|49=CLIENT1|52=20190919-05:02:17.250|56=ORDERMATCH|10=028|8=FIX.4.4|9=62|35=0|34=606|49=CLIENT1|52=20190919-05:02:47.284|56=ORDERMATCH|10=039|8=FIX.4.4|9=62|35=0|34=607|49=CLIENT1|52=20190919-05:03:17.308|56=ORDERMATCH|10=035|8=FIX.4.4|9=62|35=0|34=608|49=CLIENT1|52=20190919-05:03:47.341|56=ORDERMATCH|10=036|8=FIX.4.4|9=62|35=0|34=609|49=CLIENT1|52=20190919-05:04:17.357|56=ORDERMATCH|10=042|8=FIX.4.4|9=62|35=0|34=610|49=CLIENT1|52=20190919-05:04:47.384|56=ORDERMATCH|10=037|8=FIX.4.4|9=62|35=0|34=611|49=CLIENT1|52=20190919-05:05:17.416|56=ORDERMATCH|10=032|8=FIX.4.4|9=62|35=0|34=612|49=CLIENT1|52=20190919-05:05:47.442|56=ORDERMATCH|10=035|8=FIX.4.4|9=62|35=0|34=613|49=CLIENT1|52=20190919-05:06:17.454|56=ORDERMATCH|10=037|8=FIX.4.4|9=62|35=0|34=614|49=CLIENT1|52=20190919-05:06:47.027|56=ORDERMATCH|10=037|8=FIX.4.4|9=62|35=0|34=615|49=CLIENT1|52=20190919-05:07:17.060|56=ORDERMATCH|10=033|8=FIX.4.4|9=62|35=0|34=616|49=CLIENT1|52=20190919-05:07:47.093|56=ORDERMATCH|10=043|8=FIX.4.4|9=62|35=0|34=617|49=CLIENT1|52=20190919-05:08:17.126|56=ORDERMATCH|10=039|8=FIX.4.4|9=62|35=0|34=618|49=CLIENT1|52=20190919-05:08:47.159|56=ORDERMATCH|10=049|8=FIX.4.4|9=62|35=0|34=619|49=CLIENT1|52=20190919-05:09:17.193|56=ORDERMATCH|10=046|8=FIX.4.4|9=62|35=0|34=620|49=CLIENT1|52=20190919-05:09:47.226|56=ORDERMATCH|10=038|8=FIX.4.4|9=62|35=0|34=621|49=CLIENT1|52=20190919-05:10:17.241|56=ORDERMATCH|10=025|8=FIX.4.4|9=62|35=0|34=622|49=CLIENT1|52=20190919-05:10:47.274|56=ORDERMATCH|10=035|8=FIX.4.4|9=62|35=0|34=623|49=CLIENT1|52=20190919-05:11:17.307|56=ORDERMATCH|10=031|8=FIX.4.4|9=62|35=0|34=624|49=CLIENT1|52=20190919-05:11:47.340|56=ORDERMATCH|10=032|8=FIX.4.4|9=62|35=0|34=625|49=CLIENT1|52=20190919-05:12:17.374|56=ORDERMATCH|10=038|8=FIX.4.4|9=62|35=0|34=626|49=CLIENT1|52=20190919-05:12:47.407|56=ORDERMATCH|10=039|8=FIX.4.4|9=62|35=0|34=627|49=CLIENT1|52=20190919-05:13:17.418|56=ORDERMATCH|10=040|8=FIX.4.4|9=62|35=0|34=628|49=CLIENT1|52=20190919-05:13:47.451|56=ORDERMATCH|10=041|8=FIX.4.4|9=62|35=0|34=629|49=CLIENT1|52=20190919-05:14:17.480|56=ORDERMATCH|10=042|8=FIX.4.4|9=62|35=0|34=630|49=CLIENT1|52=20190919-05:14:47.491|56=ORDERMATCH|10=039|8=FIX.4.4|9=62|35=0|34=631|49=CLIENT1|52=20190919-05:15:17.521|56=ORDERMATCH|10=032|8=FIX.4.4|9=62|35=0|34=632|49=CLIENT1|52=20190919-05:15:47.001|56=ORDERMATCH|10=029|8=FIX.4.4|9=62|35=0|34=633|49=CLIENT1|52=20190919-05:16:17.015|56=ORDERMATCH|10=033|8=FIX.4.4|9=62|35=0|34=634|49=CLIENT1|52=20190919-05:16:47.046|56=ORDERMATCH|10=041|8=FIX.4.4|9=62|35=0|34=635|49=CLIENT1|52=20190919-05:17:17.070|56=ORDERMATCH|10=037|8=FIX.4.4|9=62|35=0|34=636|49=CLIENT1|52=20190919-05:17:47.103|56=ORDERMATCH|10=038|8=FIX.4.4|9=62|35=0|34=637|49=CLIENT1|52=20190919-05:18:17.136|56=ORDERMATCH|10=043|8=FIX.4.4|9=62|35=0|34=638|49=CLIENT1|52=20190919-05:18:47.153|56=ORDERMATCH|10=046|8=FIX.4.4|9=62|35=0|34=639|49=CLIENT1|52=20190919-05:19:17.187|56=ORDERMATCH|10=052|8=FIX.4.4|9=62|35=0|34=640|49=CLIENT1|52=20190919-05:19:47.220|56=ORDERMATCH|10=035|8=FIX.4.4|9=62|35=0|34=641|49=CLIENT1|52=20190919-05:20:17.252|56=ORDERMATCH|10=030|8=FIX.4.4|9=62|35=0|34=642|49=CLIENT1|52=20190919-05:20:47.284|56=ORDERMATCH|10=039|8=FIX.4.4|9=62|35=0|34=643|49=CLIENT1|52=20190919-05:21:17.318|56=ORDERMATCH|10=036|8=FIX.4.4|9=62|35=0|34=644|49=CLIENT1|52=20190919-05:21:47.352|56=ORDERMATCH|10=038|8=FIX.4.4|9=62|35=0|34=645|49=CLIENT1|52=20190919-05:22:17.382|56=ORDERMATCH|10=040|8=FIX.4.4|9=62|35=0|34=646|49=CLIENT1|52=20190919-05:22:47.415|56=ORDERMATCH|10=041|8=FIX.4.4|9=62|35=0|34=647|49=CLIENT1|52=20190919-05:23:17.442|56=ORDERMATCH|10=040|8=FIX.4.4|9=62|35=0|34=648|49=CLIENT1|52=20190919-05:23:47.474|56=ORDERMATCH|10=049|8=FIX.4.4|9=62|35=0|34=649|49=CLIENT1|52=20190919-05:24:17.026|56=ORDERMATCH|10=041|8=FIX.4.4|9=62|35=0|34=650|49=CLIENT1|52=20190919-05:24:47.055|56=ORDERMATCH|10=038|8=FIX.4.4|9=62|35=0|34=651|49=CLIENT1|52=20190919-05:25:17.087|56=ORDERMATCH|10=042|8=FIX.4.4|9=62|35=0|34=652|49=CLIENT1|52=20190919-05:25:47.109|56=ORDERMATCH|10=041|8=FIX.4.4|9=62|35=0|34=653|49=CLIENT1|52=20190919-05:26:17.142|56=ORDERMATCH|10=037|8=FIX.4.4|9=62|35=0|34=654|49=CLIENT1|52=20190919-05:26:47.174|56=ORDERMATCH|10=046|8=FIX.4.4|9=62|35=0|34=655|49=CLIENT1|52=20190919-05:27:17.189|56=ORDERMATCH|10=051|8=FIX.4.4|9=62|35=0|34=656|49=CLIENT1|52=20190919-05:27:47.222|56=ORDERMATCH|10=043|8=FIX.4.4|9=62|35=0|34=657|49=CLIENT1|52=20190919-05:28:17.244|56=ORDERMATCH|10=046|8=FIX.4.4|9=62|35=0|34=658|49=CLIENT1|52=20190919-05:28:47.253|56=ORDERMATCH|10=050|8=FIX.4.4|9=62|35=0|34=659|49=CLIENT1|52=20190919-05:29:17.286|56=ORDERMATCH|10=055|8=FIX.4.4|9=62|35=0|34=660|49=CLIENT1|52=20190919-05:29:47.318|56=ORDERMATCH|10=046|8=FIX.4.4|9=62|35=0|34=661|49=CLIENT1|52=20190919-05:30:17.328|56=ORDERMATCH|10=037|8=FIX.4.4|9=62|35=0|34=662|49=CLIENT1|52=20190919-05:30:47.361|56=ORDERMATCH|10=038|8=FIX.4.4|9=62|35=0|34=663|49=CLIENT1|52=20190919-05:31:17.393|56=ORDERMATCH|10=042|8=FIX.4.4|9=62|35=0|34=664|49=CLIENT1|52=20190919-05:31:47.425|56=ORDERMATCH|10=042|8=FIX.4.4|9=62|35=0|34=665|49=CLIENT1|52=20190919-05:32:17.459|56=ORDERMATCH|10=048|8=FIX.4.4|9=62|35=0|34=666|49=CLIENT1|52=20190919-05:32:47.486|56=ORDERMATCH|10=052|8=FIX.4.4|9=62|35=0|34=667|49=CLIENT1|52=20190919-05:33:17.016|56=ORDERMATCH|10=040|8=FIX.4.4|9=62|35=0|34=668|49=CLIENT1|52=20190919-05:33:47.049|56=ORDERMATCH|10=050|8=FIX.4.4|9=62|35=0|34=669|49=CLIENT1|52=20190919-05:34:17.083|56=ORDERMATCH|10=047|8=FIX.4.4|9=62|35=0|34=670|49=CLIENT1|52=20190919-05:34:47.116|56=ORDERMATCH|10=039|8=FIX.4.4|9=62|35=0|34=671|49=CLIENT1|52=20190919-05:35:17.140|56=ORDERMATCH|10=035|8=FIX.4.4|9=62|35=0|34=672|49=CLIENT1|52=20190919-05:35:47.173|56=ORDERMATCH|10=045|8=FIX.4.4|9=62|35=0|34=673|49=CLIENT1|52=20190919-05:36:17.208|56=ORDERMATCH|10=043|8=FIX.4.4|9=62|35=0|34=674|49=CLIENT1|52=20190919-05:36:47.239|56=ORDERMATCH|10=051|8=FIX.4.4|9=62|35=0|34=675|49=CLIENT1|52=20190919-05:37:17.272|56=ORDERMATCH|10=047|8=FIX.4.4|9=62|35=0|34=676|49=CLIENT1|52=20190919-05:37:47.297|56=ORDERMATCH|10=058|8=FIX.4.4|9=62|35=0|34=677|49=CLIENT1|52=20190919-05:38:17.330|56=ORDERMATCH|10=045|8=FIX.4.4|9=62|35=0|34=678|49=CLIENT1|52=20190919-05:38:47.362|56=ORDERMATCH|10=054|8=FIX.4.4|9=62|35=0|34=679|49=CLIENT1|52=20190919-05:39:17.378|56=ORDERMATCH|10=060|8=FIX.4.4|9=62|35=0|34=680|49=CLIENT1|52=20190919-05:39:47.411|56=ORDERMATCH|10=043|8=FIX.4.4|9=62|35=0|34=681|49=CLIENT1|52=20190919-05:40:17.434|56=ORDERMATCH|10=038|8=FIX.4.4|9=62|35=0|34=682|49=CLIENT1|52=20190919-05:40:47.466|56=ORDERMATCH|10=047|8=FIX.4.4|9=62|35=0|34=683|49=CLIENT1|52=20190919-05:41:17.488|56=ORDERMATCH|10=050|8=FIX.4.4|9=62|35=0|34=684|49=CLIENT1|52=20190919-05:41:47.009|56=ORDERMATCH|10=043|8=FIX.4.4|9=62|35=0|34=685|49=CLIENT1|52=20190919-05:42:17.043|56=ORDERMATCH|10=040|8=FIX.4.4|9=62|35=0|34=686|49=CLIENT1|52=20190919-05:42:47.076|56=ORDERMATCH|10=050|8=FIX.4.4|9=62|35=0|34=687|49=CLIENT1|52=20190919-05:43:17.105|56=ORDERMATCH|10=042|8=FIX.4.4|9=62|35=0|34=688|49=CLIENT1|52=20190919-05:43:47.139|56=ORDERMATCH|10=053|8=FIX.4.4|9=62|35=0|34=689|49=CLIENT1|52=20190919-05:44:17.172|56=ORDERMATCH|10=049|8=FIX.4.4|9=62|35=0|34=690|49=CLIENT1|52=20190919-05:44:47.204|56=ORDERMATCH|10=040|8=FIX.4.4|9=62|35=0|34=691|49=CLIENT1|52=20190919-05:45:17.237|56=ORDERMATCH|10=045|8=FIX.4.4|9=62|35=0|34=692|49=CLIENT1|52=20190919-05:45:47.271|56=ORDERMATCH|10=047|8=FIX.4.4|9=62|35=0|34=693|49=CLIENT1|52=20190919-05:46:17.303|56=ORDERMATCH|10=042|8=FIX.4.4|9=62|35=0|34=694|49=CLIENT1|52=20190919-05:46:47.328|56=ORDERMATCH|10=053|8=FIX.4.4|9=62|35=0|34=695|49=CLIENT1|52=20190919-05:47:17.360|56=ORDERMATCH|10=048|8=FIX.4.4|9=62|35=0|34=696|49=CLIENT1|52=20190919-05:47:47.391|56=ORDERMATCH|10=056|8=FIX.4.4|9=62|35=0|34=697|49=CLIENT1|52=20190919-05:48:17.424|56=ORDERMATCH|10=052|8=FIX.4.4|9=62|35=0|34=698|49=CLIENT1|52=20190919-05:48:47.456|56=ORDERMATCH|10=061|8=FIX.4.4|9=62|35=0|34=699|49=CLIENT1|52=20190919-05:49:17.486|56=ORDERMATCH|10=063|8=FIX.4.4|9=62|35=0|34=700|49=CLIENT1|52=20190919-05:49:47.519|56=ORDERMATCH|10=046|8=FIX.4.4|9=62|35=0|34=701|49=CLIENT1|52=20190919-05:50:17.549|56=ORDERMATCH|10=039|8=FIX.4.4|9=62|35=0|34=702|49=CLIENT1|52=20190919-05:50:47.031|56=ORDERMATCH|10=029|8=FIX.4.4|9=62|35=0|34=703|49=CLIENT1|52=20190919-05:51:17.060|56=ORDERMATCH|10=030|8=FIX.4.4|9=62|35=0|34=704|49=CLIENT1|52=20190919-05:51:47.091|56=ORDERMATCH|10=038|8=FIX.4.4|9=62|35=0|34=705|49=CLIENT1|52=20190919-05:52:17.119|56=ORDERMATCH|10=038|8=FIX.4.4|9=62|35=0|34=706|49=CLIENT1|52=20190919-05:52:47.149|56=ORDERMATCH|10=045|8=FIX.4.4|9=62|35=0|34=707|49=CLIENT1|52=20190919-05:53:17.177|56=ORDERMATCH|10=045|8=FIX.4.4|9=62|35=0|34=708|49=CLIENT1|52=20190919-05:53:47.207|56=ORDERMATCH|10=043|8=FIX.4.4|9=62|35=0|34=709|49=CLIENT1|52=20190919-05:54:17.240|56=ORDERMATCH|10=039|8=FIX.4.4|9=62|35=0|34=710|49=CLIENT1|52=20190919-05:54:47.274|56=ORDERMATCH|10=041|8=FIX.4.4|9=62|35=0|34=711|49=CLIENT1|52=20190919-05:55:17.306|56=ORDERMATCH|10=036|8=FIX.4.4|9=62|35=0|34=712|49=CLIENT1|52=20190919-05:55:47.339|56=ORDERMATCH|10=046|8=FIX.4.4|9=62|35=0|34=713|49=CLIENT1|52=20190919-05:56:17.372|56=ORDERMATCH|10=042|8=FIX.4.4|9=62|35=0|34=714|49=CLIENT1|52=20190919-05:56:47.405|56=ORDERMATCH|10=043|8=FIX.4.4|9=62|35=0|34=715|49=CLIENT1|52=20190919-05:57:17.438|56=ORDERMATCH|10=048|8=FIX.4.4|9=62|35=0|34=716|49=CLIENT1|52=20190919-05:57:47.000|56=ORDERMATCH|10=037|8=FIX.4.4|9=62|35=0|34=717|49=CLIENT1|52=20190919-05:58:17.033|56=ORDERMATCH|10=042|8=FIX.4.4|9=62|35=0|34=718|49=CLIENT1|52=20190919-05:58:47.066|56=ORDERMATCH|10=052|8=FIX.4.4|9=62|35=0|34=719|49=CLIENT1|52=20190919-05:59:17.099|56=ORDERMATCH|10=057|8=FIX.4.4|9=62|35=0|34=720|49=CLIENT1|52=20190919-05:59:47.132|56=ORDERMATCH|10=040|8=FIX.4.4|9=62|35=0|34=721|49=CLIENT1|52=20190919-06:00:17.145|56=ORDERMATCH|10=029|8=FIX.4.4|9=62|35=0|34=722|49=CLIENT1|52=20190919-06:00:47.178|56=ORDERMATCH|10=039|8=FIX.4.4|9=62|35=0|34=723|49=CLIENT1|52=20190919-06:01:17.211|56=ORDERMATCH|10=026|8=FIX.4.4|9=62|35=0|34=724|49=CLIENT1|52=20190919-06:01:47.221|56=ORDERMATCH|10=031|8=FIX.4.4|9=62|35=0|34=725|49=CLIENT1|52=20190919-06:02:17.254|56=ORDERMATCH|10=036|8=FIX.4.4|9=62|35=0|34=726|49=CLIENT1|52=20190919-06:02:47.280|56=ORDERMATCH|10=039|8=FIX.4.4|9=62|35=0|34=727|49=CLIENT1|52=20190919-06:03:17.306|56=ORDERMATCH|10=037|8=FIX.4.4|9=62|35=0|34=728|49=CLIENT1|52=20190919-06:03:47.327|56=ORDERMATCH|10=044|8=FIX.4.4|9=62|35=0|34=729|49=CLIENT1|52=20190919-06:04:17.360|56=ORDERMATCH|10=040|8=FIX.4.4|9=62|35=0|34=730|49=CLIENT1|52=20190919-06:04:47.392|56=ORDERMATCH|10=040|8=FIX.4.4|9=62|35=0|34=731|49=CLIENT1|52=20190919-06:05:17.426|56=ORDERMATCH|10=037|8=FIX.4.4|9=62|35=0|34=732|49=CLIENT1|52=20190919-06:05:47.459|56=ORDERMATCH|10=047|8=FIX.4.4|9=62|35=0|34=733|49=CLIENT1|52=20190919-06:06:17.490|56=ORDERMATCH|10=041|8=FIX.4.4|9=62|35=0|34=734|49=CLIENT1|52=20190919-06:06:47.522|56=ORDERMATCH|10=041|8=FIX.4.4|9=62|35=0|34=735|49=CLIENT1|52=20190919-06:07:17.556|56=ORDERMATCH|10=047|8=FIX.4.4|9=62|35=0|34=736|49=CLIENT1|52=20190919-06:07:47.589|56=ORDERMATCH|10=057|8=FIX.4.4|9=62|35=0|34=737|49=CLIENT1|52=20190919-06:08:17.029|56=ORDERMATCH|10=045|8=FIX.4.4|9=62|35=0|34=738|49=CLIENT1|52=20190919-06:08:47.062|56=ORDERMATCH|10=046|8=FIX.4.4|9=62|35=0|34=739|49=CLIENT1|52=20190919-06:09:17.096|56=ORDERMATCH|10=052|8=FIX.4.4|9=62|35=0|34=740|49=CLIENT1|52=20190919-06:09:47.129|56=ORDERMATCH|10=044|8=FIX.4.4|9=62|35=0|34=741|49=CLIENT1|52=20190919-06:10:17.158|56=ORDERMATCH|10=036|8=FIX.4.4|9=62|35=0|34=742|49=CLIENT1|52=20190919-06:10:47.191|56=ORDERMATCH|10=037|8=FIX.4.4|9=62|35=0|34=743|49=CLIENT1|52=20190919-06:11:17.224|56=ORDERMATCH|10=033|8=FIX.4.4|9=62|35=0|34=744|49=CLIENT1|52=20190919-06:11:47.257|56=ORDERMATCH|10=043|8=FIX.4.4|9=62|35=0|34=745|49=CLIENT1|52=20190919-06:12:17.290|56=ORDERMATCH|10=039|8=FIX.4.4|9=62|35=0|34=746|49=CLIENT1|52=20190919-06:12:47.323|56=ORDERMATCH|10=040|8=FIX.4.4|9=62|35=0|34=747|49=CLIENT1|52=20190919-06:13:17.345|56=ORDERMATCH|10=043|8=FIX.4.4|9=62|35=0|34=748|49=CLIENT1|52=20190919-06:13:47.372|56=ORDERMATCH|10=047|8=FIX.4.4|9=62|35=0|34=749|49=CLIENT1|52=20190919-06:14:17.378|56=ORDERMATCH|10=052|8=FIX.4.4|9=62|35=0|34=750|49=CLIENT1|52=20190919-06:14:47.411|56=ORDERMATCH|10=035|8=FIX.4.4|9=62|35=0|34=751|49=CLIENT1|52=20190919-06:15:17.424|56=ORDERMATCH|10=038|8=FIX.4.4|9=62|35=0|34=752|49=CLIENT1|52=20190919-06:15:47.028|56=ORDERMATCH|10=042|8=FIX.4.4|9=62|35=0|34=753|49=CLIENT1|52=20190919-06:16:17.058|56=ORDERMATCH|10=044|8=FIX.4.4|9=62|35=0|34=754|49=CLIENT1|52=20190919-06:16:47.091|56=ORDERMATCH|10=045|8=FIX.4.4|9=62|35=0|34=755|49=CLIENT1|52=20190919-06:17:17.124|56=ORDERMATCH|10=041|8=FIX.4.4|9=62|35=0|34=756|49=CLIENT1|52=20190919-06:17:47.156|56=ORDERMATCH|10=050|8=FIX.4.4|9=62|35=0|34=757|49=CLIENT1|52=20190919-06:18:17.190|56=ORDERMATCH|10=047|8=FIX.4.4|9=62|35=0|34=758|49=CLIENT1|52=20190919-06:18:47.222|56=ORDERMATCH|10=047|8=FIX.4.4|9=62|35=0|34=759|49=CLIENT1|52=20190919-06:19:17.255|56=ORDERMATCH|10=052|8=FIX.4.4|9=62|35=0|34=760|49=CLIENT1|52=20190919-06:19:47.289|56=ORDERMATCH|10=054|8=FIX.4.4|9=62|35=0|34=761|49=CLIENT1|52=20190919-06:20:17.322|56=ORDERMATCH|10=032|8=FIX.4.4|9=62|35=0|34=762|49=CLIENT1|52=20190919-06:20:47.354|56=ORDERMATCH|10=041|8=FIX.4.4|9=62|35=0|34=763|49=CLIENT1|52=20190919-06:21:17.387|56=ORDERMATCH|10=046|8=FIX.4.4|9=62|35=0|34=764|49=CLIENT1|52=20190919-06:21:47.420|56=ORDERMATCH|10=038|8=FIX.4.4|9=62|35=0|34=765|49=CLIENT1|52=20190919-06:22:17.445|56=ORDERMATCH|10=044|8=FIX.4.4|9=62|35=0|34=766|49=CLIENT1|52=20190919-06:22:47.472|56=ORDERMATCH|10=048|8=FIX.4.4|9=62|35=0|34=767|49=CLIENT1|52=20190919-06:23:17.497|56=ORDERMATCH|10=054|8=FIX.4.4|9=62|35=0|34=768|49=CLIENT1|52=20190919-06:23:47.530|56=ORDERMATCH|10=046|8=FIX.4.4|9=62|35=0|34=769|49=CLIENT1|52=20190919-06:24:17.558|56=ORDERMATCH|10=055|8=FIX.4.4|9=62|35=0|34=770|49=CLIENT1|52=20190919-06:24:47.020|56=ORDERMATCH|10=034|8=FIX.4.4|9=62|35=0|34=771|49=CLIENT1|52=20190919-06:25:17.050|56=ORDERMATCH|10=036|8=FIX.4.4|9=62|35=0|34=772|49=CLIENT1|52=20190919-06:25:47.076|56=ORDERMATCH|10=048|8=FIX.4.4|9=62|35=0|34=773|49=CLIENT1|52=20190919-06:26:17.089|56=ORDERMATCH|10=051|8=FIX.4.4|9=62|35=0|34=774|49=CLIENT1|52=20190919-06:26:47.121|56=ORDERMATCH|10=042|8=FIX.4.4|9=62|35=0|34=775|49=CLIENT1|52=20190919-06:27:17.153|56=ORDERMATCH|10=046|8=FIX.4.4|9=62|35=0|34=776|49=CLIENT1|52=20190919-06:27:47.175|56=ORDERMATCH|10=054|8=FIX.4.4|9=62|35=0|34=777|49=CLIENT1|52=20190919-06:28:17.196|56=ORDERMATCH|10=056|8=FIX.4.4|9=62|35=0|34=778|49=CLIENT1|52=20190919-06:28:47.227|56=ORDERMATCH|10=055|8=FIX.4.4|9=62|35=0|34=779|49=CLIENT1|52=20190919-06:29:17.259|56=ORDERMATCH|10=059|8=FIX.4.4|9=62|35=0|34=780|49=CLIENT1|52=20190919-06:29:47.289|56=ORDERMATCH|10=057|8=FIX.4.4|9=62|35=0|34=781|49=CLIENT1|52=20190919-06:30:17.321|56=ORDERMATCH|10=034|8=FIX.4.4|9=62|35=0|34=782|49=CLIENT1|52=20190919-06:30:47.351|56=ORDERMATCH|10=041|8=FIX.4.4|9=62|35=0|34=783|49=CLIENT1|52=20190919-06:31:17.382|56=ORDERMATCH|10=044|8=FIX.4.4|9=62|35=0|34=784|49=CLIENT1|52=20190919-06:31:47.023|56=ORDERMATCH|10=040|8=FIX.4.4|9=62|35=0|34=785|49=CLIENT1|52=20190919-06:32:17.055|56=ORDERMATCH|10=044|8=FIX.4.4|9=62|35=0|34=786|49=CLIENT1|52=20190919-06:32:47.088|56=ORDERMATCH|10=054|8=FIX.4.4|9=62|35=0|34=787|49=CLIENT1|52=20190919-06:33:17.122|56=ORDERMATCH|10=042|8=FIX.4.4|9=62|35=0|34=788|49=CLIENT1|52=20190919-06:33:47.143|56=ORDERMATCH|10=049|8=FIX.4.4|9=62|35=0|34=789|49=CLIENT1|52=20190919-06:34:17.174|56=ORDERMATCH|10=052|8=FIX.4.4|9=62|35=0|34=790|49=CLIENT1|52=20190919-06:34:47.199|56=ORDERMATCH|10=054|8=FIX.4.4|9=62|35=0|34=791|49=CLIENT1|52=20190919-06:35:17.232|56=ORDERMATCH|10=041|8=FIX.4.4|9=62|35=0|34=792|49=CLIENT1|52=20190919-06:35:47.266|56=ORDERMATCH|10=052|8=FIX.4.4|9=62|35=0|34=793|49=CLIENT1|52=20190919-06:36:17.297|56=ORDERMATCH|10=055|8=FIX.4.4|9=62|35=0|34=794|49=CLIENT1|52=20190919-06:36:47.318|56=ORDERMATCH|10=053|8=FIX.4.4|9=62|35=0|34=795|49=CLIENT1|52=20190919-06:37:17.352|56=ORDERMATCH|10=050|8=FIX.4.4|9=62|35=0|34=796|49=CLIENT1|52=20190919-06:37:47.384|56=ORDERMATCH|10=059|8=FIX.4.4|9=62|35=0|34=797|49=CLIENT1|52=20190919-06:38:17.416|56=ORDERMATCH|10=054|8=FIX.4.4|9=62|35=0|34=798|49=CLIENT1|52=20190919-06:38:47.450|56=ORDERMATCH|10=056|8=FIX.4.4|9=62|35=0|34=799|49=CLIENT1|52=20190919-06:39:17.479|56=ORDERMATCH|10=066|8=FIX.4.4|9=62|35=0|34=800|49=CLIENT1|52=20190919-06:39:47.510|56=ORDERMATCH|10=038|8=FIX.4.4|9=62|35=0|34=801|49=CLIENT1|52=20190919-06:40:17.544|56=ORDERMATCH|10=035|8=FIX.4.4|9=62|35=0|34=802|49=CLIENT1|52=20190919-06:40:47.576|56=ORDERMATCH|10=044|8=FIX.4.4|9=62|35=0|34=803|49=CLIENT1|52=20190919-06:41:17.607|56=ORDERMATCH|10=038|8=FIX.4.4|9=62|35=0|34=804|49=CLIENT1|52=20190919-06:41:47.006|56=ORDERMATCH|10=035|8=FIX.4.4|9=62|35=0|34=805|49=CLIENT1|52=20190919-06:42:17.038|56=ORDERMATCH|10=039|8=FIX.4.4|9=62|35=0|34=806|49=CLIENT1|52=20190919-06:42:47.071|56=ORDERMATCH|10=040|8=FIX.4.4|9=62|35=0|34=807|49=CLIENT1|52=20190919-06:43:17.097|56=ORDERMATCH|10=047|8=FIX.4.4|9=62|35=0|34=808|49=CLIENT1|52=20190919-06:43:47.104|56=ORDERMATCH|10=040|8=FIX.4.4|9=62|35=0|34=809|49=CLIENT1|52=20190919-06:44:17.133|56=ORDERMATCH|10=041|8=FIX.4.4|9=62|35=0|34=810|49=CLIENT1|52=20190919-06:44:47.166|56=ORDERMATCH|10=042|8=FIX.4.4|9=62|35=0|34=811|49=CLIENT1|52=20190919-06:45:17.199|56=ORDERMATCH|10=047|8=FIX.4.4|9=62|35=0|34=812|49=CLIENT1|52=20190919-06:45:47.228|56=ORDERMATCH|10=044|8=FIX.4.4|9=62|35=0|34=813|49=CLIENT1|52=20190919-06:46:17.260|56=ORDERMATCH|10=039|8=FIX.4.4|9=62|35=0|34=814|49=CLIENT1|52=20190919-06:46:47.294|56=ORDERMATCH|10=050|8=FIX.4.4|9=62|35=0|34=815|49=CLIENT1|52=20190919-06:47:17.326|56=ORDERMATCH|10=045|8=FIX.4.4|9=62|35=0|34=816|49=CLIENT1|52=20190919-06:47:47.359|56=ORDERMATCH|10=055|8=FIX.4.4|9=62|35=0|34=817|49=CLIENT1|52=20190919-06:48:17.024|56=ORDERMATCH|10=043|8=FIX.4.4|9=62|35=0|34=818|49=CLIENT1|52=20190919-06:48:47.057|56=ORDERMATCH|10=053|8=FIX.4.4|9=62|35=0|34=819|49=CLIENT1|52=20190919-06:49:17.090|56=ORDERMATCH|10=049|8=FIX.4.4|9=62|35=0|34=820|49=CLIENT1|52=20190919-06:49:47.123|56=ORDERMATCH|10=041|8=FIX.4.4|9=62|35=0|34=821|49=CLIENT1|52=20190919-06:50:17.155|56=ORDERMATCH|10=036|8=FIX.4.4|9=62|35=0|34=822|49=CLIENT1|52=20190919-06:50:47.187|56=ORDERMATCH|10=045|8=FIX.4.4|9=62|35=0|34=823|49=CLIENT1|52=20190919-06:51:17.200|56=ORDERMATCH|10=030|8=FIX.4.4|9=62|35=0|34=824|49=CLIENT1|52=20190919-06:51:47.233|56=ORDERMATCH|10=040|8=FIX.4.4|9=62|35=0|34=825|49=CLIENT1|52=20190919-06:52:17.266|56=ORDERMATCH|10=045|8=FIX.4.4|9=62|35=0|34=826|49=CLIENT1|52=20190919-06:52:47.277|56=ORDERMATCH|10=051|8=FIX.4.4|9=62|35=0|34=827|49=CLIENT1|52=20190919-06:53:17.307|56=ORDERMATCH|10=044|8=FIX.4.4|9=62|35=0|34=828|49=CLIENT1|52=20190919-06:53:47.339|56=ORDERMATCH|10=053|8=FIX.4.4|9=62|35=0|34=829|49=CLIENT1|52=20190919-06:54:17.368|56=ORDERMATCH|10=054|8=FIX.4.4|9=62|35=0|34=830|49=CLIENT1|52=20190919-06:54:47.399|56=ORDERMATCH|10=053|8=FIX.4.4|9=62|35=0|34=831|49=CLIENT1|52=20190919-06:55:17.432|56=ORDERMATCH|10=040|8=FIX.4.4|9=62|35=0|34=832|49=CLIENT1|52=20190919-06:55:47.462|56=ORDERMATCH|10=047|8=FIX.4.4|9=62|35=0|34=833|49=CLIENT1|52=20190919-06:56:17.492|56=ORDERMATCH|10=049|8=FIX.4.4|9=62|35=0|34=834|49=CLIENT1|52=20190919-06:56:47.525|56=ORDERMATCH|10=050|8=FIX.4.4|9=62|35=0|34=835|49=CLIENT1|52=20190919-06:57:17.558|56=ORDERMATCH|10=055|8=FIX.4.4|9=62|35=0|34=836|49=CLIENT1|52=20190919-06:57:47.589|56=ORDERMATCH|10=063|8=FIX.4.4|9=62|35=0|34=837|49=CLIENT1|52=20190919-06:58:17.005|56=ORDERMATCH|10=045|8=FIX.4.4|9=62|35=0|34=838|49=CLIENT1|52=20190919-06:58:47.039|56=ORDERMATCH|10=056|8=FIX.4.4|9=62|35=0|34=839|49=CLIENT1|52=20190919-06:59:17.072|56=ORDERMATCH|10=052|8=FIX.4.4|9=62|35=0|34=840|49=CLIENT1|52=20190919-06:59:47.107|56=ORDERMATCH|10=046|8=FIX.4.4|9=62|35=0|34=841|49=CLIENT1|52=20190919-07:00:17.138|56=ORDERMATCH|10=035|8=FIX.4.4|9=62|35=0|34=842|49=CLIENT1|52=20190919-07:00:47.164|56=ORDERMATCH|10=038|8=FIX.4.4|9=62|35=0|34=843|49=CLIENT1|52=20190919-07:01:17.196|56=ORDERMATCH|10=042|8=FIX.4.4|9=62|35=0|34=844|49=CLIENT1|52=20190919-07:01:47.230|56=ORDERMATCH|10=035|8=FIX.4.4|9=62|35=0|34=845|49=CLIENT1|52=20190919-07:02:17.263|56=ORDERMATCH|10=040|8=FIX.4.4|9=62|35=0|34=846|49=CLIENT1|52=20190919-07:02:47.295|56=ORDERMATCH|10=049|8=FIX.4.4|9=62|35=0|34=847|49=CLIENT1|52=20190919-07:03:17.329|56=ORDERMATCH|10=046|8=FIX.4.4|9=62|35=0|34=848|49=CLIENT1|52=20190919-07:03:47.358|56=ORDERMATCH|10=052|8=FIX.4.4|9=62|35=0|34=849|49=CLIENT1|52=20190919-07:04:17.391|56=ORDERMATCH|10=048|8=FIX.4.4|9=62|35=0|34=850|49=CLIENT1|52=20190919-07:04:47.424|56=ORDERMATCH|10=040|8=FIX.4.4|9=62|35=0|34=851|49=CLIENT1|52=20190919-07:05:17.026|56=ORDERMATCH|10=037|8=FIX.4.4|9=62|35=0|34=852|49=CLIENT1|52=20190919-07:05:47.058|56=ORDERMATCH|10=046|8=FIX.4.4|9=62|35=0|34=853|49=CLIENT1|52=20190919-07:06:17.091|56=ORDERMATCH|10=042|8=FIX.4.4|9=62|35=0|34=854|49=CLIENT1|52=20190919-07:06:47.125|56=ORDERMATCH|10=044|8=FIX.4.4|9=62|35=0|34=855|49=CLIENT1|52=20190919-07:07:17.157|56=ORDERMATCH|10=048|8=FIX.4.4|9=62|35=0|34=856|49=CLIENT1|52=20190919-07:07:47.190|56=ORDERMATCH|10=049|8=FIX.4.4|9=62|35=0|34=857|49=CLIENT1|52=20190919-07:08:17.222|56=ORDERMATCH|10=044|8=FIX.4.4|9=62|35=0|34=858|49=CLIENT1|52=20190919-07:08:47.254|56=ORDERMATCH|10=053|8=FIX.4.4|9=62|35=0|34=859|49=CLIENT1|52=20190919-07:09:17.287|56=ORDERMATCH|10=058|8=FIX.4.4|9=62|35=0|34=860|49=CLIENT1|52=20190919-07:09:47.320|56=ORDERMATCH|10=041|8=FIX.4.4|9=62|35=0|34=861|49=CLIENT1|52=20190919-07:10:17.353|56=ORDERMATCH|10=037|8=FIX.4.4|9=62|35=0|34=862|49=CLIENT1|52=20190919-07:10:47.386|56=ORDERMATCH|10=047|8=FIX.4.4|9=62|35=0|34=863|49=CLIENT1|52=20190919-07:11:17.415|56=ORDERMATCH|10=039|8=FIX.4.4|9=62|35=0|34=864|49=CLIENT1|52=20190919-07:11:47.447|56=ORDERMATCH|10=048|8=FIX.4.4|9=62|35=0|34=865|49=CLIENT1|52=20190919-07:12:17.468|56=ORDERMATCH|10=050|8=FIX.4.4|9=62|35=0|34=866|49=CLIENT1|52=20190919-07:12:47.498|56=ORDERMATCH|10=057|8=FIX.4.4|9=62|35=0|34=867|49=CLIENT1|52=20190919-07:13:17.529|56=ORDERMATCH|10=051|8=FIX.4.4|9=62|35=0|34=868|49=CLIENT1|52=20190919-07:13:47.561|56=ORDERMATCH|10=051|8=FIX.4.4|9=62|35=0|34=869|49=CLIENT1|52=20190919-07:14:17.013|56=ORDERMATCH|10=042|8=FIX.4.4|9=62|35=0|34=870|49=CLIENT1|52=20190919-07:14:47.046|56=ORDERMATCH|10=043|8=FIX.4.4|9=62|35=0|34=871|49=CLIENT1|52=20190919-07:15:17.080|56=ORDERMATCH|10=040|8=FIX.4.4|9=62|35=0|34=872|49=CLIENT1|52=20190919-07:15:47.114|56=ORDERMATCH|10=042|8=FIX.4.4|9=62|35=0|34=873|49=CLIENT1|52=20190919-07:16:17.147|56=ORDERMATCH|10=047|8=FIX.4.4|9=62|35=0|34=874|49=CLIENT1|52=20190919-07:16:47.166|56=ORDERMATCH|10=052|8=FIX.4.4|9=62|35=0|34=875|49=CLIENT1|52=20190919-07:17:17.186|56=ORDERMATCH|10=053|8=FIX.4.4|9=62|35=0|34=876|49=CLIENT1|52=20190919-07:17:47.218|56=ORDERMATCH|10=053|8=FIX.4.4|9=62|35=0|34=877|49=CLIENT1|52=20190919-07:18:17.251|56=ORDERMATCH|10=049|8=FIX.4.4|9=62|35=0|34=878|49=CLIENT1|52=20190919-07:18:47.284|56=ORDERMATCH|10=059|8=FIX.4.4|9=62|35=0|34=879|49=CLIENT1|52=20190919-07:19:17.317|56=ORDERMATCH|10=055|8=FIX.4.4|9=62|35=0|34=880|49=CLIENT1|52=20190919-07:19:47.349|56=ORDERMATCH|10=055|8=FIX.4.4|9=62|35=0|34=881|49=CLIENT1|52=20190919-07:20:17.383|56=ORDERMATCH|10=043|8=FIX.4.4|9=62|35=0|34=882|49=CLIENT1|52=20190919-07:20:47.415|56=ORDERMATCH|10=043|8=FIX.4.4|9=62|35=0|34=883|49=CLIENT1|52=20190919-07:21:17.012|56=ORDERMATCH|10=035|8=FIX.4.4|9=62|35=0|34=884|49=CLIENT1|52=20190919-07:21:47.044|56=ORDERMATCH|10=044|8=FIX.4.4|9=62|35=0|34=885|49=CLIENT1|52=20190919-07:22:17.078|56=ORDERMATCH|10=050|8=FIX.4.4|9=62|35=0|34=886|49=CLIENT1|52=20190919-07:22:47.111|56=ORDERMATCH|10=042|8=FIX.4.4|9=62|35=0|34=887|49=CLIENT1|52=20190919-07:23:17.144|56=ORDERMATCH|10=047|8=FIX.4.4|9=62|35=0|34=888|49=CLIENT1|52=20190919-07:23:47.177|56=ORDERMATCH|10=057|8=FIX.4.4|9=62|35=0|34=889|49=CLIENT1|52=20190919-07:24:17.210|56=ORDERMATCH|10=044|8=FIX.4.4|9=62|35=0|34=890|49=CLIENT1|52=20190919-07:24:47.243|56=ORDERMATCH|10=045|8=FIX.4.4|9=62|35=0|34=891|49=CLIENT1|52=20190919-07:25:17.275|56=ORDERMATCH|10=049|8=FIX.4.4|9=62|35=0|34=892|49=CLIENT1|52=20190919-07:25:47.304|56=ORDERMATCH|10=046|8=FIX.4.4|9=62|35=0|34=893|49=CLIENT1|52=20190919-07:26:17.337|56=ORDERMATCH|10=051|8=FIX.4.4|9=62|35=0|34=894|49=CLIENT1|52=20190919-07:26:47.369|56=ORDERMATCH|10=060|8=FIX.4.4|9=62|35=0|34=895|49=CLIENT1|52=20190919-07:27:17.403|56=ORDERMATCH|10=048|8=FIX.4.4|9=62|35=0|34=896|49=CLIENT1|52=20190919-07:27:47.437|56=ORDERMATCH|10=059|8=FIX.4.4|9=62|35=0|34=897|49=CLIENT1|52=20190919-07:28:17.471|56=ORDERMATCH|10=056|8=FIX.4.4|9=62|35=0|34=898|49=CLIENT1|52=20190919-07:28:47.503|56=ORDERMATCH|10=056|8=FIX.4.4|9=62|35=0|34=899|49=CLIENT1|52=20190919-07:29:17.533|56=ORDERMATCH|10=058|8=FIX.4.4|9=62|35=0|34=900|49=CLIENT1|52=20190919-07:29:47.562|56=ORDERMATCH|10=046|8=FIX.4.4|9=62|35=0|34=901|49=CLIENT1|52=20190919-07:30:17.596|56=ORDERMATCH|10=043|8=FIX.4.4|9=62|35=0|34=902|49=CLIENT1|52=20190919-07:30:47.009|56=ORDERMATCH|10=036|8=FIX.4.4|9=62|35=0|34=903|49=CLIENT1|52=20190919-07:31:17.035|56=ORDERMATCH|10=034|8=FIX.4.4|9=62|35=0|34=904|49=CLIENT1|52=20190919-07:31:47.069|56=ORDERMATCH|10=045|8=FIX.4.4|9=62|35=0|34=905|49=CLIENT1|52=20190919-07:32:17.102|56=ORDERMATCH|10=032|8=FIX.4.4|9=62|35=0|34=906|49=CLIENT1|52=20190919-07:32:47.136|56=ORDERMATCH|10=043|8=FIX.4.4|9=62|35=0|34=907|49=CLIENT1|52=20190919-07:33:17.169|56=ORDERMATCH|10=048|8=FIX.4.4|9=62|35=0|34=908|49=CLIENT1|52=20190919-07:33:47.203|56=ORDERMATCH|10=041|8=FIX.4.4|9=62|35=0|34=909|49=CLIENT1|52=20190919-07:34:17.235|56=ORDERMATCH|10=045|8=FIX.4.4|9=62|35=0|34=910|49=CLIENT1|52=20190919-07:34:47.265|56=ORDERMATCH|10=043|8=FIX.4.4|9=62|35=0|34=911|49=CLIENT1|52=20190919-07:35:17.298|56=ORDERMATCH|10=048|8=FIX.4.4|9=62|35=0|34=912|49=CLIENT1|52=20190919-07:35:47.332|56=ORDERMATCH|10=041|8=FIX.4.4|9=62|35=0|34=913|49=CLIENT1|52=20190919-07:36:17.365|56=ORDERMATCH|10=046|8=FIX.4.4|9=62|35=0|34=914|49=CLIENT1|52=20190919-07:36:47.399|56=ORDERMATCH|10=057|8=FIX.4.4|9=62|35=0|34=915|49=CLIENT1|52=20190919-07:37:17.023|56=ORDERMATCH|10=040|8=FIX.4.4|9=62|35=0|34=916|49=CLIENT1|52=20190919-07:37:47.055|56=ORDERMATCH|10=049|8=FIX.4.4|9=62|35=0|34=917|49=CLIENT1|52=20190919-07:38:17.074|56=ORDERMATCH|10=049|8=FIX.4.4|9=62|35=0|34=918|49=CLIENT1|52=20190919-07:38:47.091|56=ORDERMATCH|10=052|8=FIX.4.4|9=62|35=0|34=919|49=CLIENT1|52=20190919-07:39:17.123|56=ORDERMATCH|10=047|8=FIX.4.4|9=62|35=0|34=920|49=CLIENT1|52=20190919-07:39:47.156|56=ORDERMATCH|10=048|8=FIX.4.4|9=62|35=0|34=921|49=CLIENT1|52=20190919-07:40:17.188|56=ORDERMATCH|10=043|8=FIX.4.4|9=62|35=0|34=922|49=CLIENT1|52=20190919-07:40:47.222|56=ORDERMATCH|10=036|8=FIX.4.4|9=62|35=0|34=923|49=CLIENT1|52=20190919-07:41:17.254|56=ORDERMATCH|10=040|8=FIX.4.4|9=62|35=0|34=924|49=CLIENT1|52=20190919-07:41:47.287|56=ORDERMATCH|10=050|8=FIX.4.4|9=62|35=0|34=925|49=CLIENT1|52=20190919-07:42:17.318|56=ORDERMATCH|10=044|8=FIX.4.4|9=62|35=0|34=926|49=CLIENT1|52=20190919-07:42:47.351|56=ORDERMATCH|10=045|8=FIX.4.4|9=62|35=0|34=927|49=CLIENT1|52=20190919-07:43:17.384|56=ORDERMATCH|10=050|8=FIX.4.4|9=62|35=0|34=928|49=CLIENT1|52=20190919-07:43:47.417|56=ORDERMATCH|10=051|8=FIX.4.4|9=62|35=0|34=929|49=CLIENT1|52=20190919-07:44:17.450|56=ORDERMATCH|10=047|8=FIX.4.4|9=62|35=0|34=930|49=CLIENT1|52=20190919-07:44:47.483|56=ORDERMATCH|10=048|8=FIX.4.4|9=62|35=0|34=931|49=CLIENT1|52=20190919-07:45:17.516|56=ORDERMATCH|10=044|8=FIX.4.4|9=62|35=0|34=932|49=CLIENT1|52=20190919-07:45:47.548|56=ORDERMATCH|10=053|8=FIX.4.4|9=62|35=0|34=933|49=CLIENT1|52=20190919-07:46:17.008|56=ORDERMATCH|10=043|8=FIX.4.4|9=62|35=0|34=934|49=CLIENT1|52=20190919-07:46:47.042|56=ORDERMATCH|10=045|8=FIX.4.4|9=62|35=0|34=935|49=CLIENT1|52=20190919-07:47:17.074|56=ORDERMATCH|10=049|8=FIX.4.4|9=62|35=0|34=936|49=CLIENT1|52=20190919-07:47:47.107|56=ORDERMATCH|10=050|8=FIX.4.4|9=62|35=0|34=937|49=CLIENT1|52=20190919-07:48:17.140|56=ORDERMATCH|10=046|8=FIX.4.4|9=62|35=0|34=938|49=CLIENT1|52=20190919-07:48:47.167|56=ORDERMATCH|10=059|8=FIX.4.4|9=62|35=0|34=939|49=CLIENT1|52=20190919-07:49:17.200|56=ORDERMATCH|10=046|8=FIX.4.4|9=62|35=0|34=940|49=CLIENT1|52=20190919-07:49:47.233|56=ORDERMATCH|10=047|8=FIX.4.4|9=62|35=0|34=941|49=CLIENT1|52=20190919-07:50:17.266|56=ORDERMATCH|10=043|8=FIX.4.4|9=62|35=0|34=942|49=CLIENT1|52=20190919-07:50:47.300|56=ORDERMATCH|10=036|8=FIX.4.4|9=62|35=0|34=943|49=CLIENT1|52=20190919-07:51:17.333|56=ORDERMATCH|10=041|8=FIX.4.4|9=62|35=0|34=944|49=CLIENT1|52=20190919-07:51:47.363|56=ORDERMATCH|10=048|8=FIX.4.4|9=62|35=0|34=945|49=CLIENT1|52=20190919-07:52:17.397|56=ORDERMATCH|10=054|8=FIX.4.4|9=62|35=0|34=946|49=CLIENT1|52=20190919-07:52:47.424|56=ORDERMATCH|10=049|8=FIX.4.4|9=62|35=0|34=947|49=CLIENT1|52=20190919-07:53:17.457|56=ORDERMATCH|10=054|8=FIX.4.4|9=62|35=0|34=948|49=CLIENT1|52=20190919-07:53:47.005|56=ORDERMATCH|10=047|8=FIX.4.4|9=62|35=0|34=949|49=CLIENT1|52=20190919-07:54:17.038|56=ORDERMATCH|10=052|8=FIX.4.4|9=62|35=0|34=950|49=CLIENT1|52=20190919-07:54:47.071|56=ORDERMATCH|10=044|8=FIX.4.4|9=62|35=0|34=951|49=CLIENT1|52=20190919-07:55:17.103|56=ORDERMATCH|10=039|8=FIX.4.4|9=62|35=0|34=952|49=CLIENT1|52=20190919-07:55:47.139|56=ORDERMATCH|10=052|8=FIX.4.4|9=62|35=0|34=953|49=CLIENT1|52=20190919-07:56:17.172|56=ORDERMATCH|10=048|8=FIX.4.4|9=62|35=0|34=954|49=CLIENT1|52=20190919-07:56:47.206|56=ORDERMATCH|10=050|8=FIX.4.4|9=62|35=0|34=955|49=CLIENT1|52=20190919-07:57:17.238|56=ORDERMATCH|10=054|8=FIX.4.4|9=62|35=0|34=956|49=CLIENT1|52=20190919-07:57:47.271|56=ORDERMATCH|10=055|8=FIX.4.4|9=62|35=0|34=957|49=CLIENT1|52=20190919-07:58:17.293|56=ORDERMATCH|10=058|8=FIX.4.4|9=62|35=0|34=958|49=CLIENT1|52=20190919-07:58:47.327|56=ORDERMATCH|10=060|8=FIX.4.4|9=62|35=0|34=959|49=CLIENT1|52=20190919-07:59:17.359|56=ORDERMATCH|10=064|8=FIX.4.4|9=62|35=0|34=960|49=CLIENT1|52=20190919-07:59:47.389|56=ORDERMATCH|10=062|8=FIX.4.4|9=62|35=0|34=961|49=CLIENT1|52=20190919-08:00:17.423|56=ORDERMATCH|10=036|8=FIX.4.4|9=62|35=0|34=962|49=CLIENT1|52=20190919-08:00:47.455|56=ORDERMATCH|10=045|8=FIX.4.4|9=62|35=0|34=963|49=CLIENT1|52=20190919-08:01:17.488|56=ORDERMATCH|10=050|8=FIX.4.4|9=62|35=0|34=964|49=CLIENT1|52=20190919-08:01:47.514|56=ORDERMATCH|10=044|8=FIX.4.4|9=62|35=0|34=965|49=CLIENT1|52=20190919-08:02:17.022|56=ORDERMATCH|10=037|8=FIX.4.4|9=62|35=0|34=966|49=CLIENT1|52=20190919-08:02:47.055|56=ORDERMATCH|10=047|8=FIX.4.4|9=62|35=0|34=967|49=CLIENT1|52=20190919-08:03:17.087|56=ORDERMATCH|10=051|8=FIX.4.4|9=62|35=0|34=968|49=CLIENT1|52=20190919-08:03:47.120|56=ORDERMATCH|10=043|8=FIX.4.4|9=62|35=0|34=969|49=CLIENT1|52=20190919-08:04:17.131|56=ORDERMATCH|10=044|8=FIX.4.4|9=62|35=0|34=970|49=CLIENT1|52=20190919-08:04:47.158|56=ORDERMATCH|10=048|8=FIX.4.4|9=62|35=0|34=971|49=CLIENT1|52=20190919-08:05:17.192|56=ORDERMATCH|10=045|8=FIX.4.4|9=62|35=0|34=972|49=CLIENT1|52=20190919-08:05:47.226|56=ORDERMATCH|10=047|8=FIX.4.4|9=62|35=0|34=973|49=CLIENT1|52=20190919-08:06:17.259|56=ORDERMATCH|10=052|8=FIX.4.4|9=62|35=0|34=974|49=CLIENT1|52=20190919-08:06:47.290|56=ORDERMATCH|10=051|8=FIX.4.4|9=62|35=0|34=975|49=CLIENT1|52=20190919-08:07:17.324|56=ORDERMATCH|10=048|8=FIX.4.4|9=62|35=0|34=976|49=CLIENT1|52=20190919-08:07:47.344|56=ORDERMATCH|10=054|8=FIX.4.4|9=62|35=0|34=977|49=CLIENT1|52=20190919-08:08:17.375|56=ORDERMATCH|10=057|8=FIX.4.4|9=62|35=0|34=978|49=CLIENT1|52=20190919-08:08:47.408|56=ORDERMATCH|10=058|8=FIX.4.4|9=62|35=0|34=979|49=CLIENT1|52=20190919-08:09:17.440|56=ORDERMATCH|10=053|8=FIX.4.4|9=62|35=0|34=980|49=CLIENT1|52=20190919-08:09:47.469|56=ORDERMATCH|10=059|8=FIX.4.4|9=62|35=0|34=981|49=CLIENT1|52=20190919-08:10:17.025|56=ORDERMATCH|10=037|8=FIX.4.4|9=62|35=0|34=982|49=CLIENT1|52=20190919-08:10:47.056|56=ORDERMATCH|10=045|8=FIX.4.4|9=62|35=0|34=983|49=CLIENT1|52=20190919-08:11:17.089|56=ORDERMATCH|10=050|8=FIX.4.4|9=62|35=0|34=984|49=CLIENT1|52=20190919-08:11:47.121|56=ORDERMATCH|10=041|8=FIX.4.4|9=62|35=0|34=985|49=CLIENT1|52=20190919-08:12:17.155|56=ORDERMATCH|10=047|8=FIX.4.4|9=62|35=0|34=986|49=CLIENT1|52=20190919-08:12:47.187|56=ORDERMATCH|10=056|8=FIX.4.4|9=62|35=0|34=987|49=CLIENT1|52=20190919-08:13:17.201|56=ORDERMATCH|10=042|8=FIX.4.4|9=62|35=0|34=988|49=CLIENT1|52=20190919-08:13:47.219|56=ORDERMATCH|10=055|8=FIX.4.4|9=62|35=0|34=989|49=CLIENT1|52=20190919-08:14:17.251|56=ORDERMATCH|10=050|8=FIX.4.4|9=62|35=0|34=990|49=CLIENT1|52=20190919-08:14:47.261|56=ORDERMATCH|10=046|8=FIX.4.4|9=62|35=0|34=991|49=CLIENT1|52=20190919-08:15:17.282|56=ORDERMATCH|10=048|8=FIX.4.4|9=62|35=0|34=992|49=CLIENT1|52=20190919-08:15:47.296|56=ORDERMATCH|10=057|8=FIX.4.4|9=62|35=0|34=993|49=CLIENT1|52=20190919-08:16:17.324|56=ORDERMATCH|10=048|8=FIX.4.4|9=62|35=0|34=994|49=CLIENT1|52=20190919-08:16:47.356|56=ORDERMATCH|10=057|8=FIX.4.4|9=62|35=0|34=995|49=CLIENT1|52=20190919-08:17:17.389|56=ORDERMATCH|10=062|8=FIX.4.4|9=62|35=0|34=996|49=CLIENT1|52=20190919-08:17:47.421|56=ORDERMATCH|10=053|8=FIX.4.4|9=62|35=0|34=997|49=CLIENT1|52=20190919-08:18:17.430|56=ORDERMATCH|10=052|8=FIX.4.4|9=62|35=0|34=998|49=CLIENT1|52=20190919-08:18:47.463|56=ORDERMATCH|10=062|8=FIX.4.4|9=62|35=0|34=999|49=CLIENT1|52=20190919-08:19:17.495|56=ORDERMATCH|10=066|8=FIX.4.4|9=63|35=0|34=1000|49=CLIENT1|52=20190919-08:19:47.032|56=ORDERMATCH|10=079|8=FIX.4.4|9=63|35=0|34=1001|49=CLIENT1|52=20190919-08:20:17.065|56=ORDERMATCH|10=075|8=FIX.4.4|9=63|35=0|34=1002|49=CLIENT1|52=20190919-08:20:47.099|56=ORDERMATCH|10=086|8=FIX.4.4|9=63|35=0|34=1003|49=CLIENT1|52=20190919-08:21:17.132|56=ORDERMATCH|10=073|8=FIX.4.4|9=63|35=0|34=1004|49=CLIENT1|52=20190919-08:21:47.157|56=ORDERMATCH|10=084|8=FIX.4.4|9=63|35=0|34=1005|49=CLIENT1|52=20190919-08:22:17.190|56=ORDERMATCH|10=080|8=FIX.4.4|9=63|35=0|34=1006|49=CLIENT1|52=20190919-08:22:47.223|56=ORDERMATCH|10=081|8=FIX.4.4|9=63|35=0|34=1007|49=CLIENT1|52=20190919-08:23:17.257|56=ORDERMATCH|10=087|8=FIX.4.4|9=63|35=0|34=1008|49=CLIENT1|52=20190919-08:23:47.289|56=ORDERMATCH|10=096|8=FIX.4.4|9=63|35=0|34=1009|49=CLIENT1|52=20190919-08:24:17.322|56=ORDERMATCH|10=083|8=FIX.4.4|9=63|35=0|34=1010|49=CLIENT1|52=20190919-08:24:47.380|56=ORDERMATCH|10=082|8=FIX.4.4|9=63|35=0|34=1011|49=CLIENT1|52=20190919-08:25:17.393|56=ORDERMATCH|10=085|8=FIX.4.4|9=63|35=0|34=1012|49=CLIENT1|52=20190919-08:25:47.430|56=ORDERMATCH|10=081|8=FIX.4.4|9=63|35=0|34=1013|49=CLIENT1|52=20190919-08:26:17.466|56=ORDERMATCH|10=089|8=FIX.4.4|9=63|35=0|34=1014|49=CLIENT1|52=20190919-08:26:47.498|56=ORDERMATCH|10=098|8=FIX.4.4|9=63|35=0|34=1015|49=CLIENT1|52=20190919-08:27:17.520|56=ORDERMATCH|10=083|8=FIX.4.4|9=63|35=0|34=1016|49=CLIENT1|52=20190919-08:27:47.007|56=ORDERMATCH|10=087|8=FIX.4.4|9=63|35=0|34=1017|49=CLIENT1|52=20190919-08:28:17.040|56=ORDERMATCH|10=083|8=FIX.4.4|9=63|35=0|34=1018|49=CLIENT1|52=20190919-08:28:47.073|56=ORDERMATCH|10=093|8=FIX.4.4|9=63|35=0|34=1019|49=CLIENT1|52=20190919-08:29:17.106|56=ORDERMATCH|10=089|8=FIX.4.4|9=63|35=0|34=1020|49=CLIENT1|52=20190919-08:29:47.138|56=ORDERMATCH|10=089|8=FIX.4.4|9=63|35=0|34=1021|49=CLIENT1|52=20190919-08:30:17.171|56=ORDERMATCH|10=076|8=FIX.4.4|9=63|35=0|34=1022|49=CLIENT1|52=20190919-08:30:47.205|56=ORDERMATCH|10=078|8=FIX.4.4|9=63|35=0|34=1023|49=CLIENT1|52=20190919-08:31:17.238|56=ORDERMATCH|10=083|8=FIX.4.4|9=63|35=0|34=1024|49=CLIENT1|52=20190919-08:31:47.272|56=ORDERMATCH|10=085|8=FIX.4.4|9=63|35=0|34=1025|49=CLIENT1|52=20190919-08:32:17.305|56=ORDERMATCH|10=081|8=FIX.4.4|9=63|35=0|34=1026|49=CLIENT1|52=20190919-08:32:47.335|56=ORDERMATCH|10=088|8=FIX.4.4|9=63|35=0|34=1027|49=CLIENT1|52=20190919-08:33:17.366|56=ORDERMATCH|10=091|8=FIX.4.4|9=63|35=0|34=1028|49=CLIENT1|52=20190919-08:33:47.400|56=ORDERMATCH|10=084|8=FIX.4.4|9=63|35=0|34=1029|49=CLIENT1|52=20190919-08:34:17.432|56=ORDERMATCH|10=088|8=FIX.4.4|9=63|35=0|34=1030|49=CLIENT1|52=20190919-08:34:47.465|56=ORDERMATCH|10=089|8=FIX.4.4|9=63|35=0|34=1031|49=CLIENT1|52=20190919-08:35:17.026|56=ORDERMATCH|10=081|8=FIX.4.4|9=63|35=0|34=1032|49=CLIENT1|52=20190919-08:35:47.059|56=ORDERMATCH|10=091|8=FIX.4.4|9=63|35=0|34=1033|49=CLIENT1|52=20190919-08:36:17.079|56=ORDERMATCH|10=092|8=FIX.4.4|9=63|35=0|34=1034|49=CLIENT1|52=20190919-08:36:47.109|56=ORDERMATCH|10=090|8=FIX.4.4|9=63|35=0|34=1035|49=CLIENT1|52=20190919-08:37:17.143|56=ORDERMATCH|10=087|8=FIX.4.4|9=63|35=0|34=1036|49=CLIENT1|52=20190919-08:37:47.176|56=ORDERMATCH|10=097|8=FIX.4.4|9=63|35=0|34=1037|49=CLIENT1|52=20190919-08:38:17.209|56=ORDERMATCH|10=093|8=FIX.4.4|9=63|35=0|34=1038|49=CLIENT1|52=20190919-08:38:47.242|56=ORDERMATCH|10=094|8=FIX.4.4|9=63|35=0|34=1039|49=CLIENT1|52=20190919-08:39:17.275|56=ORDERMATCH|10=099|8=FIX.4.4|9=63|35=0|34=1040|49=CLIENT1|52=20190919-08:39:47.308|56=ORDERMATCH|10=091|8=FIX.4.4|9=63|35=0|34=1041|49=CLIENT1|52=20190919-08:40:17.342|56=ORDERMATCH|10=079|8=FIX.4.4|9=63|35=0|34=1042|49=CLIENT1|52=20190919-08:40:47.375|56=ORDERMATCH|10=089|8=FIX.4.4|9=63|35=0|34=1043|49=CLIENT1|52=20190919-08:41:17.408|56=ORDERMATCH|10=085|8=FIX.4.4|9=63|35=0|34=1044|49=CLIENT1|52=20190919-08:41:47.439|56=ORDERMATCH|10=093|8=FIX.4.4|9=63|35=0|34=1045|49=CLIENT1|52=20190919-08:42:17.472|56=ORDERMATCH|10=089|8=FIX.4.4|9=63|35=0|34=1046|49=CLIENT1|52=20190919-08:42:47.488|56=ORDERMATCH|10=100|8=FIX.4.4|9=63|35=0|34=1047|49=CLIENT1|52=20190919-08:43:17.013|56=ORDERMATCH|10=083|8=FIX.4.4|9=63|35=0|34=1048|49=CLIENT1|52=20190919-08:43:47.045|56=ORDERMATCH|10=092|8=FIX.4.4|9=63|35=0|34=1049|49=CLIENT1|52=20190919-08:44:17.078|56=ORDERMATCH|10=097|8=FIX.4.4|9=63|35=0|34=1050|49=CLIENT1|52=20190919-08:44:47.110|56=ORDERMATCH|10=079|8=FIX.4.4|9=63|35=0|34=1051|49=CLIENT1|52=20190919-08:45:17.142|56=ORDERMATCH|10=083|8=FIX.4.4|9=63|35=0|34=1052|49=CLIENT1|52=20190919-08:45:47.176|56=ORDERMATCH|10=094|8=FIX.4.4|9=63|35=0|34=1053|49=CLIENT1|52=20190919-08:46:17.208|56=ORDERMATCH|10=089|8=FIX.4.4|9=63|35=0|34=1054|49=CLIENT1|52=20190919-08:46:47.241|56=ORDERMATCH|10=090|8=FIX.4.4|9=63|35=0|34=1055|49=CLIENT1|52=20190919-08:47:17.252|56=ORDERMATCH|10=091|8=FIX.4.4|9=63|35=0|34=1056|49=CLIENT1|52=20190919-08:47:47.285|56=ORDERMATCH|10=101|8=FIX.4.4|9=63|35=0|34=1057|49=CLIENT1|52=20190919-08:48:17.309|56=ORDERMATCH|10=097|8=FIX.4.4|9=63|35=0|34=1058|49=CLIENT1|52=20190919-08:48:47.341|56=ORDERMATCH|10=097|8=FIX.4.4|9=63|35=0|34=1059|49=CLIENT1|52=20190919-08:49:17.374|56=ORDERMATCH|10=102|8=FIX.4.4|9=63|35=0|34=1060|49=CLIENT1|52=20190919-08:49:47.406|56=ORDERMATCH|10=093|8=FIX.4.4|9=63|35=0|34=1061|49=CLIENT1|52=20190919-08:50:17.438|56=ORDERMATCH|10=088|8=FIX.4.4|9=63|35=0|34=1062|49=CLIENT1|52=20190919-08:50:47.471|56=ORDERMATCH|10=089|8=FIX.4.4|9=63|35=0|34=1063|49=CLIENT1|52=20190919-08:51:17.020|56=ORDERMATCH|10=078|8=FIX.4.4|9=63|35=0|34=1064|49=CLIENT1|52=20190919-08:51:47.052|56=ORDERMATCH|10=087|8=FIX.4.4|9=63|35=0|34=1065|49=CLIENT1|52=20190919-08:52:17.083|56=ORDERMATCH|10=090|8=FIX.4.4|9=63|35=0|34=1066|49=CLIENT1|52=20190919-08:52:47.116|56=ORDERMATCH|10=091|8=FIX.4.4|9=63|35=0|34=1067|49=CLIENT1|52=20190919-08:53:17.149|56=ORDERMATCH|10=096|8=FIX.4.4|9=63|35=0|34=1068|49=CLIENT1|52=20190919-08:53:47.167|56=ORDERMATCH|10=100|8=FIX.4.4|9=63|35=0|34=1069|49=CLIENT1|52=20190919-08:54:17.198|56=ORDERMATCH|10=103|8=FIX.4.4|9=63|35=0|34=1070|49=CLIENT1|52=20190919-08:54:47.230|56=ORDERMATCH|10=085|8=FIX.4.4|9=63|35=0|34=1071|49=CLIENT1|52=20190919-08:55:17.263|56=ORDERMATCH|10=090|8=FIX.4.4|9=63|35=0|34=1072|49=CLIENT1|52=20190919-08:55:47.296|56=ORDERMATCH|10=100|8=FIX.4.4|9=63|35=0|34=1073|49=CLIENT1|52=20190919-08:56:17.329|56=ORDERMATCH|10=096|8=FIX.4.4|9=63|35=0|34=1074|49=CLIENT1|52=20190919-08:56:47.363|56=ORDERMATCH|10=098|8=FIX.4.4|9=63|35=0|34=1075|49=CLIENT1|52=20190919-08:57:17.395|56=ORDERMATCH|10=102|8=FIX.4.4|9=63|35=0|34=1076|49=CLIENT1|52=20190919-08:57:47.420|56=ORDERMATCH|10=095|8=FIX.4.4|9=63|35=0|34=1077|49=CLIENT1|52=20190919-08:58:17.453|56=ORDERMATCH|10=100|8=FIX.4.4|9=63|35=0|34=1078|49=CLIENT1|52=20190919-08:58:47.481|56=ORDERMATCH|10=105|8=FIX.4.4|9=63|35=0|34=1079|49=CLIENT1|52=20190919-08:59:17.501|56=ORDERMATCH|10=097|8=FIX.4.4|9=63|35=0|34=1080|49=CLIENT1|52=20190919-08:59:47.534|56=ORDERMATCH|10=098|8=FIX.4.4|9=63|35=0|34=1081|49=CLIENT1|52=20190919-09:00:17.019|56=ORDERMATCH|10=081|8=FIX.4.4|9=63|35=0|34=1082|49=CLIENT1|52=20190919-09:00:47.051|56=ORDERMATCH|10=081|8=FIX.4.4|9=63|35=0|34=1083|49=CLIENT1|52=20190919-09:01:17.085|56=ORDERMATCH|10=087|8=FIX.4.4|9=63|35=0|34=1084|49=CLIENT1|52=20190919-09:01:47.118|56=ORDERMATCH|10=088|8=FIX.4.4|9=63|35=0|34=1085|49=CLIENT1|52=20190919-09:02:17.150|56=ORDERMATCH|10=083|8=FIX.4.4|9=63|35=0|34=1086|49=CLIENT1|52=20190919-09:02:47.183|56=ORDERMATCH|10=093|8=FIX.4.4|9=63|35=0|34=1087|49=CLIENT1|52=20190919-09:03:17.216|56=ORDERMATCH|10=089|8=FIX.4.4|9=63|35=0|34=1088|49=CLIENT1|52=20190919-09:03:47.249|56=ORDERMATCH|10=099|8=FIX.4.4|9=63|35=0|34=1089|49=CLIENT1|52=20190919-09:04:17.280|56=ORDERMATCH|10=093|8=FIX.4.4|9=63|35=0|34=1090|49=CLIENT1|52=20190919-09:04:47.309|56=ORDERMATCH|10=090|8=FIX.4.4|9=63|35=0|34=1091|49=CLIENT1|52=20190919-09:05:17.339|56=ORDERMATCH|10=092|8=FIX.4.4|9=63|35=0|34=1092|49=CLIENT1|52=20190919-09:05:47.372|56=ORDERMATCH|10=093|8=FIX.4.4|9=63|35=0|34=1093|49=CLIENT1|52=20190919-09:06:17.406|56=ORDERMATCH|10=090|8=FIX.4.4|9=63|35=0|34=1094|49=CLIENT1|52=20190919-09:06:47.438|56=ORDERMATCH|10=099|8=FIX.4.4|9=63|35=0|34=1095|49=CLIENT1|52=20190919-09:07:17.019|56=ORDERMATCH|10=093|8=FIX.4.4|9=63|35=0|34=1096|49=CLIENT1|52=20190919-09:07:47.053|56=ORDERMATCH|10=095|8=FIX.4.4|9=63|35=0|34=1097|49=CLIENT1|52=20190919-09:08:17.086|56=ORDERMATCH|10=100|8=FIX.4.4|9=63|35=0|34=1098|49=CLIENT1|52=20190919-09:08:47.119|56=ORDERMATCH|10=101|8=FIX.4.4|9=63|35=0|34=1099|49=CLIENT1|52=20190919-09:09:17.152|56=ORDERMATCH|10=097|8=FIX.4.4|9=63|35=0|34=1100|49=CLIENT1|52=20190919-09:09:47.169|56=ORDERMATCH|10=091|8=FIX.4.4|9=63|35=0|34=1101|49=CLIENT1|52=20190919-09:10:17.200|56=ORDERMATCH|10=067|8=FIX.4.4|9=63|35=0|34=1102|49=CLIENT1|52=20190919-09:10:47.234|56=ORDERMATCH|10=078|8=FIX.4.4|9=63|35=0|34=1103|49=CLIENT1|52=20190919-09:11:17.267|56=ORDERMATCH|10=083|8=FIX.4.4|9=63|35=0|34=1104|49=CLIENT1|52=20190919-09:11:47.300|56=ORDERMATCH|10=075|8=FIX.4.4|9=63|35=0|34=1105|49=CLIENT1|52=20190919-09:12:17.334|56=ORDERMATCH|10=081|8=FIX.4.4|9=63|35=0|34=1106|49=CLIENT1|52=20190919-09:12:47.367|56=ORDERMATCH|10=091|8=FIX.4.4|9=63|35=0|34=1107|49=CLIENT1|52=20190919-09:13:17.400|56=ORDERMATCH|10=078|8=FIX.4.4|9=63|35=0|34=1108|49=CLIENT1|52=20190919-09:13:47.432|56=ORDERMATCH|10=087|8=FIX.4.4|9=63|35=0|34=1109|49=CLIENT1|52=20190919-09:14:17.465|56=ORDERMATCH|10=092|8=FIX.4.4|9=63|35=0|34=1110|49=CLIENT1|52=20190919-09:14:47.491|56=ORDERMATCH|10=086|8=FIX.4.4|9=63|35=0|34=1111|49=CLIENT1|52=20190919-09:15:17.524|56=ORDERMATCH|10=082|8=FIX.4.4|9=63|35=0|34=1112|49=CLIENT1|52=20190919-09:15:47.556|56=ORDERMATCH|10=091|8=FIX.4.4|9=63|35=0|34=1113|49=CLIENT1|52=20190919-09:16:17.010|56=ORDERMATCH|10=075|8=FIX.4.4|9=63|35=0|34=1114|49=CLIENT1|52=20190919-09:16:47.042|56=ORDERMATCH|10=084|8=FIX.4.4|9=63|35=0|34=1115|49=CLIENT1|52=20190919-09:17:17.081|56=ORDERMATCH|10=086|8=FIX.4.4|9=63|35=0|34=1116|49=CLIENT1|52=20190919-09:17:47.114|56=ORDERMATCH|10=087|8=FIX.4.4|9=63|35=0|34=1117|49=CLIENT1|52=20190919-09:18:17.148|56=ORDERMATCH|10=093|8=FIX.4.4|9=63|35=0|34=1118|49=CLIENT1|52=20190919-09:18:47.181|56=ORDERMATCH|10=094|8=FIX.4.4|9=63|35=0|34=1119|49=CLIENT1|52=20190919-09:19:17.212|56=ORDERMATCH|10=088|8=FIX.4.4|9=63|35=0|34=1120|49=CLIENT1|52=20190919-09:19:47.245|56=ORDERMATCH|10=089|8=FIX.4.4|9=63|35=0|34=1121|49=CLIENT1|52=20190919-09:20:17.278|56=ORDERMATCH|10=085|8=FIX.4.4|9=63|35=0|34=1122|49=CLIENT1|52=20190919-09:20:47.310|56=ORDERMATCH|10=076|8=FIX.4.4|9=63|35=0|34=1123|49=CLIENT1|52=20190919-09:21:17.343|56=ORDERMATCH|10=081|8=FIX.4.4|9=63|35=0|34=1124|49=CLIENT1|52=20190919-09:21:47.366|56=ORDERMATCH|10=090|8=FIX.4.4|9=63|35=0|34=1125|49=CLIENT1|52=20190919-09:22:17.399|56=ORDERMATCH|10=095|8=FIX.4.4|9=63|35=0|34=1126|49=CLIENT1|52=20190919-09:22:47.005|56=ORDERMATCH|10=083|8=FIX.4.4|9=63|35=0|34=1127|49=CLIENT1|52=20190919-09:23:17.036|56=ORDERMATCH|10=086|8=FIX.4.4|9=63|35=0|34=1128|49=CLIENT1|52=20190919-09:23:47.070|56=ORDERMATCH|10=088|8=FIX.4.4|9=63|35=0|34=1129|49=CLIENT1|52=20190919-09:24:17.103|56=ORDERMATCH|10=084|8=FIX.4.4|9=63|35=0|34=1130|49=CLIENT1|52=20190919-09:24:47.137|56=ORDERMATCH|10=086|8=FIX.4.4|9=63|35=0|34=1131|49=CLIENT1|52=20190919-09:25:17.164|56=ORDERMATCH|10=085|8=FIX.4.4|9=63|35=0|34=1132|49=CLIENT1|52=20190919-09:25:47.198|56=ORDERMATCH|10=096|8=FIX.4.4|9=63|35=0|34=1133|49=CLIENT1|52=20190919-09:26:17.230|56=ORDERMATCH|10=082|8=FIX.4.4|9=63|35=0|34=1134|49=CLIENT1|52=20190919-09:26:47.263|56=ORDERMATCH|10=092|8=FIX.4.4|9=63|35=0|34=1135|49=CLIENT1|52=20190919-09:27:17.296|56=ORDERMATCH|10=097|8=FIX.4.4|9=63|35=0|34=1136|49=CLIENT1|52=20190919-09:27:47.329|56=ORDERMATCH|10=098|8=FIX.4.4|9=63|35=0|34=1137|49=CLIENT1|52=20190919-09:28:17.362|56=ORDERMATCH|10=094|8=FIX.4.4|9=63|35=0|34=1138|49=CLIENT1|52=20190919-09:28:47.396|56=ORDERMATCH|10=105|8=FIX.4.4|9=63|35=0|34=1139|49=CLIENT1|52=20190919-09:29:17.424|56=ORDERMATCH|10=096|8=FIX.4.4|9=63|35=0|34=1140|49=CLIENT1|52=20190919-09:29:47.457|56=ORDERMATCH|10=097|8=FIX.4.4|9=63|35=0|34=1141|49=CLIENT1|52=20190919-09:30:17.490|56=ORDERMATCH|10=084|8=FIX.4.4|9=63|35=0|34=1142|49=CLIENT1|52=20190919-09:30:47.511|56=ORDERMATCH|10=082|8=FIX.4.4|9=63|35=0|34=1143|49=CLIENT1|52=20190919-09:31:17.544|56=ORDERMATCH|10=087|8=FIX.4.4|9=63|35=0|34=1144|49=CLIENT1|52=20190919-09:31:47.577|56=ORDERMATCH|10=097|8=FIX.4.4|9=63|35=0|34=1145|49=CLIENT1|52=20190919-09:32:17.610|56=ORDERMATCH|10=084|8=FIX.4.4|9=63|35=0|34=1146|49=CLIENT1|52=20190919-09:32:47.028|56=ORDERMATCH|10=091|8=FIX.4.4|9=63|35=0|34=1147|49=CLIENT1|52=20190919-09:33:17.051|56=ORDERMATCH|10=086|8=FIX.4.4|9=63|35=0|34=1148|49=CLIENT1|52=20190919-09:33:47.084|56=ORDERMATCH|10=096|8=FIX.4.4|9=63|35=0|34=1149|49=CLIENT1|52=20190919-09:34:17.116|56=ORDERMATCH|10=091|8=FIX.4.4|9=63|35=0|34=1150|49=CLIENT1|52=20190919-09:34:47.149|56=ORDERMATCH|10=092|8=FIX.4.4|9=63|35=0|34=1151|49=CLIENT1|52=20190919-09:35:17.182|56=ORDERMATCH|10=088|8=FIX.4.4|9=63|35=0|34=1152|49=CLIENT1|52=20190919-09:35:47.214|56=ORDERMATCH|10=088|8=FIX.4.4|9=63|35=0|34=1153|49=CLIENT1|52=20190919-09:36:17.247|56=ORDERMATCH|10=093|8=FIX.4.4|9=63|35=0|34=1154|49=CLIENT1|52=20190919-09:36:47.280|56=ORDERMATCH|10=094|8=FIX.4.4|9=63|35=0|34=1155|49=CLIENT1|52=20190919-09:37:17.313|56=ORDERMATCH|10=090|8=FIX.4.4|9=63|35=0|34=1156|49=CLIENT1|52=20190919-09:37:47.345|56=ORDERMATCH|10=099|8=FIX.4.4|9=63|35=0|34=1157|49=CLIENT1|52=20190919-09:38:17.001|56=ORDERMATCH|10=087|8=FIX.4.4|9=63|35=0|34=1158|49=CLIENT1|52=20190919-09:38:47.035|56=ORDERMATCH|10=098|8=FIX.4.4|9=63|35=0|34=1159|49=CLIENT1|52=20190919-09:39:17.067|56=ORDERMATCH|10=102|8=FIX.4.4|9=63|35=0|34=1160|49=CLIENT1|52=20190919-09:39:47.095|56=ORDERMATCH|10=098|8=FIX.4.4|9=63|35=0|34=1161|49=CLIENT1|52=20190919-09:40:17.128|56=ORDERMATCH|10=085|8=FIX.4.4|9=63|35=0|34=1162|49=CLIENT1|52=20190919-09:40:47.162|56=ORDERMATCH|10=087|8=FIX.4.4|9=63|35=0|34=1163|49=CLIENT1|52=20190919-09:41:17.182|56=ORDERMATCH|10=088|8=FIX.4.4|9=63|35=0|34=1164|49=CLIENT1|52=20190919-09:41:47.215|56=ORDERMATCH|10=089|8=FIX.4.4|9=63|35=0|34=1165|49=CLIENT1|52=20190919-09:42:17.248|56=ORDERMATCH|10=094|8=FIX.4.4|9=63|35=0|34=1166|49=CLIENT1|52=20190919-09:42:47.282|56=ORDERMATCH|10=096|8=FIX.4.4|9=63|35=0|34=1167|49=CLIENT1|52=20190919-09:43:17.315|56=ORDERMATCH|10=092|8=FIX.4.4|9=63|35=0|34=1168|49=CLIENT1|52=20190919-09:43:47.347|56=ORDERMATCH|10=101|8=FIX.4.4|9=63|35=0|34=1169|49=CLIENT1|52=20190919-09:44:17.380|56=ORDERMATCH|10=097|8=FIX.4.4|9=63|35=0|34=1170|49=CLIENT1|52=20190919-09:44:47.413|56=ORDERMATCH|10=089|8=FIX.4.4|9=63|35=0|34=1171|49=CLIENT1|52=20190919-09:45:17.447|56=ORDERMATCH|10=095|8=FIX.4.4|9=63|35=0|34=1172|49=CLIENT1|52=20190919-09:45:47.468|56=ORDERMATCH|10=102|8=FIX.4.4|9=63|35=0|34=1173|49=CLIENT1|52=20190919-09:46:17.499|56=ORDERMATCH|10=105|8=FIX.4.4|9=63|35=0|34=1174|49=CLIENT1|52=20190919-09:46:47.533|56=ORDERMATCH|10=098|8=FIX.4.4|9=63|35=0|34=1175|49=CLIENT1|52=20190919-09:47:17.555|56=ORDERMATCH|10=101|8=FIX.4.4|9=63|35=0|34=1176|49=CLIENT1|52=20190919-09:47:47.587|56=ORDERMATCH|10=110|8=FIX.4.4|9=63|35=0|34=1177|49=CLIENT1|52=20190919-09:48:17.621|56=ORDERMATCH|10=098|8=FIX.4.4|9=63|35=0|34=1178|49=CLIENT1|52=20190919-09:48:47.641|56=ORDERMATCH|10=104|8=FIX.4.4|9=63|35=0|34=1179|49=CLIENT1|52=20190919-09:49:17.003|56=ORDERMATCH|10=095|8=FIX.4.4|9=63|35=0|34=1180|49=CLIENT1|52=20190919-09:49:47.035|56=ORDERMATCH|10=095|8=FIX.4.4|9=63|35=0|34=1181|49=CLIENT1|52=20190919-09:50:17.069|56=ORDERMATCH|10=092|8=FIX.4.4|9=63|35=0|34=1182|49=CLIENT1|52=20190919-09:50:47.102|56=ORDERMATCH|10=084|8=FIX.4.4|9=63|35=0|34=1183|49=CLIENT1|52=20190919-09:51:17.134|56=ORDERMATCH|10=088|8=FIX.4.4|9=63|35=0|34=1184|49=CLIENT1|52=20190919-09:51:47.167|56=ORDERMATCH|10=098|8=FIX.4.4|9=63|35=0|34=1185|49=CLIENT1|52=20190919-09:52:17.199|56=ORDERMATCH|10=102|8=FIX.4.4|9=63|35=0|34=1186|49=CLIENT1|52=20190919-09:52:47.233|56=ORDERMATCH|10=095|8=FIX.4.4|9=63|35=0|34=1187|49=CLIENT1|52=20190919-09:53:17.266|56=ORDERMATCH|10=100|8=FIX.4.4|9=63|35=0|34=1188|49=CLIENT1|52=20190919-09:53:47.294|56=ORDERMATCH|10=105|8=FIX.4.4|9=63|35=0|34=1189|49=CLIENT1|52=20190919-09:54:17.323|56=ORDERMATCH|10=097|8=FIX.4.4|9=63|35=0|34=1